{
    "contractName": "PolicyManagement",
    "abi": [
        {
            "inputs": [],
            "stateMutability": "nonpayable",
            "type": "constructor"
        },
        {
            "anonymous": false,
            "inputs": [
                {
                    "indexed": true,
                    "internalType": "uint256",
                    "name": "claimId",
                    "type": "uint256"
                },
                {
                    "indexed": false,
                    "internalType": "uint256",
                    "name": "claimAmount",
                    "type": "uint256"
                },
                {
                    "indexed": false,
                    "internalType": "uint256",
                    "name": "coverageRemaining",
                    "type": "uint256"
                },
                {
                    "indexed": false,
                    "internalType": "uint256",
                    "name": "coverageUsed",
                    "type": "uint256"
                },
                {
                    "indexed": true,
                    "internalType": "address",
                    "name": "approver",
                    "type": "address"
                },
                {
                    "indexed": false,
                    "internalType": "enum PolicyManagement.ClaimStatus",
                    "name": "status",
                    "type": "uint8"
                }
            ],
            "name": "ClaimApproved",
            "type": "event"
        },
        {
            "anonymous": false,
            "inputs": [
                {
                    "indexed": true,
                    "internalType": "uint256",
                    "name": "claimId",
                    "type": "uint256"
                },
                {
                    "indexed": false,
                    "internalType": "uint256",
                    "name": "claimAmount",
                    "type": "uint256"
                },
                {
                    "indexed": false,
                    "internalType": "uint256",
                    "name": "coverageRemaining",
                    "type": "uint256"
                },
                {
                    "indexed": false,
                    "internalType": "uint256",
                    "name": "coverageUsed",
                    "type": "uint256"
                },
                {
                    "indexed": true,
                    "internalType": "address",
                    "name": "approver",
                    "type": "address"
                },
                {
                    "indexed": false,
                    "internalType": "enum PolicyManagement.ClaimStatus",
                    "name": "status",
                    "type": "uint8"
                }
            ],
            "name": "ClaimCompleted",
            "type": "event"
        },
        {
            "anonymous": false,
            "inputs": [
                {
                    "indexed": true,
                    "internalType": "uint256",
                    "name": "claimId",
                    "type": "uint256"
                },
                {
                    "indexed": false,
                    "internalType": "uint256",
                    "name": "claimAmount",
                    "type": "uint256"
                },
                {
                    "indexed": false,
                    "internalType": "uint256",
                    "name": "coverageRemaining",
                    "type": "uint256"
                },
                {
                    "indexed": false,
                    "internalType": "uint256",
                    "name": "coverageUsed",
                    "type": "uint256"
                },
                {
                    "indexed": true,
                    "internalType": "address",
                    "name": "approver",
                    "type": "address"
                },
                {
                    "indexed": false,
                    "internalType": "enum PolicyManagement.ClaimStatus",
                    "name": "status",
                    "type": "uint8"
                }
            ],
            "name": "ClaimDenied",
            "type": "event"
        },
        {
            "anonymous": false,
            "inputs": [
                {
                    "indexed": false,
                    "internalType": "uint256",
                    "name": "policyId",
                    "type": "uint256"
                },
                {
                    "indexed": false,
                    "internalType": "uint256",
                    "name": "claimId",
                    "type": "uint256"
                },
                {
                    "indexed": false,
                    "internalType": "uint256",
                    "name": "claimAmount",
                    "type": "uint256"
                },
                {
                    "indexed": false,
                    "internalType": "enum PolicyManagement.ClaimStatus",
                    "name": "status",
                    "type": "uint8"
                }
            ],
            "name": "ClaimRequested",
            "type": "event"
        },
        {
            "anonymous": false,
            "inputs": [
                {
                    "indexed": true,
                    "internalType": "uint256",
                    "name": "policyId",
                    "type": "uint256"
                },
                {
                    "indexed": true,
                    "internalType": "uint256",
                    "name": "vehicleId",
                    "type": "uint256"
                },
                {
                    "indexed": false,
                    "internalType": "uint256",
                    "name": "premium",
                    "type": "uint256"
                },
                {
                    "indexed": false,
                    "internalType": "uint256",
                    "name": "coverage",
                    "type": "uint256"
                },
                {
                    "indexed": false,
                    "internalType": "address",
                    "name": "user",
                    "type": "address"
                },
                {
                    "indexed": false,
                    "internalType": "address[]",
                    "name": "insurers",
                    "type": "address[]"
                },
                {
                    "indexed": false,
                    "internalType": "uint256",
                    "name": "createdAt",
                    "type": "uint256"
                },
                {
                    "indexed": false,
                    "internalType": "uint256",
                    "name": "updatedAt",
                    "type": "uint256"
                }
            ],
            "name": "PolicyCreated",
            "type": "event"
        },
        {
            "anonymous": false,
            "inputs": [
                {
                    "indexed": false,
                    "internalType": "uint256",
                    "name": "quotationId",
                    "type": "uint256"
                },
                {
                    "indexed": false,
                    "internalType": "uint256",
                    "name": "premium",
                    "type": "uint256"
                },
                {
                    "indexed": false,
                    "internalType": "uint256",
                    "name": "coverage",
                    "type": "uint256"
                },
                {
                    "indexed": false,
                    "internalType": "uint256",
                    "name": "createdAt",
                    "type": "uint256"
                },
                {
                    "indexed": false,
                    "internalType": "uint256",
                    "name": "updatedAt",
                    "type": "uint256"
                }
            ],
            "name": "QuotationAdded",
            "type": "event"
        },
        {
            "anonymous": false,
            "inputs": [
                {
                    "indexed": false,
                    "internalType": "uint256",
                    "name": "quotationId",
                    "type": "uint256"
                },
                {
                    "indexed": false,
                    "internalType": "uint256",
                    "name": "premium",
                    "type": "uint256"
                },
                {
                    "indexed": false,
                    "internalType": "uint256",
                    "name": "coverage",
                    "type": "uint256"
                },
                {
                    "indexed": false,
                    "internalType": "uint256",
                    "name": "createdAt",
                    "type": "uint256"
                },
                {
                    "indexed": false,
                    "internalType": "uint256",
                    "name": "updatedAt",
                    "type": "uint256"
                }
            ],
            "name": "QuotationUpdated",
            "type": "event"
        },
        {
            "inputs": [
                {
                    "internalType": "uint256",
                    "name": "quotationId",
                    "type": "uint256"
                },
                {
                    "internalType": "uint256",
                    "name": "premium",
                    "type": "uint256"
                },
                {
                    "internalType": "uint256",
                    "name": "coverage",
                    "type": "uint256"
                },
                {
                    "internalType": "uint256",
                    "name": "createdAt",
                    "type": "uint256"
                },
                {
                    "internalType": "uint256",
                    "name": "updatedAt",
                    "type": "uint256"
                }
            ],
            "name": "addQuotation",
            "outputs": [
                {
                    "internalType": "bool",
                    "name": "success",
                    "type": "bool"
                }
            ],
            "stateMutability": "nonpayable",
            "type": "function"
        },
        {
            "inputs": [
                {
                    "internalType": "uint256",
                    "name": "claimId",
                    "type": "uint256"
                },
                {
                    "internalType": "uint256",
                    "name": "updatedAt",
                    "type": "uint256"
                }
            ],
            "name": "approveClaim",
            "outputs": [
                {
                    "internalType": "bool",
                    "name": "success",
                    "type": "bool"
                }
            ],
            "stateMutability": "nonpayable",
            "type": "function"
        },
        {
            "inputs": [
                {
                    "internalType": "uint256",
                    "name": "",
                    "type": "uint256"
                }
            ],
            "name": "claim",
            "outputs": [
                {
                    "internalType": "uint256",
                    "name": "policyId",
                    "type": "uint256"
                },
                {
                    "internalType": "uint256",
                    "name": "claimAmount",
                    "type": "uint256"
                },
                {
                    "internalType": "bytes32",
                    "name": "reason",
                    "type": "bytes32"
                },
                {
                    "internalType": "enum PolicyManagement.ClaimStatus",
                    "name": "status",
                    "type": "uint8"
                },
                {
                    "internalType": "address",
                    "name": "createdBy",
                    "type": "address"
                },
                {
                    "internalType": "uint256",
                    "name": "createdAt",
                    "type": "uint256"
                },
                {
                    "internalType": "uint256",
                    "name": "updatedAt",
                    "type": "uint256"
                }
            ],
            "stateMutability": "view",
            "type": "function"
        },
        {
            "inputs": [
                {
                    "internalType": "uint256",
                    "name": "",
                    "type": "uint256"
                },
                {
                    "internalType": "uint256",
                    "name": "",
                    "type": "uint256"
                }
            ],
            "name": "claims",
            "outputs": [
                {
                    "internalType": "uint256",
                    "name": "policyId",
                    "type": "uint256"
                },
                {
                    "internalType": "uint256",
                    "name": "claimAmount",
                    "type": "uint256"
                },
                {
                    "internalType": "bytes32",
                    "name": "reason",
                    "type": "bytes32"
                },
                {
                    "internalType": "enum PolicyManagement.ClaimStatus",
                    "name": "status",
                    "type": "uint8"
                },
                {
                    "internalType": "address",
                    "name": "createdBy",
                    "type": "address"
                },
                {
                    "internalType": "uint256",
                    "name": "createdAt",
                    "type": "uint256"
                },
                {
                    "internalType": "uint256",
                    "name": "updatedAt",
                    "type": "uint256"
                }
            ],
            "stateMutability": "view",
            "type": "function"
        },
        {
            "inputs": [
                {
                    "internalType": "bytes",
                    "name": "data",
                    "type": "bytes"
                }
            ],
            "name": "createPolicy",
            "outputs": [
                {
                    "internalType": "uint256",
                    "name": "",
                    "type": "uint256"
                }
            ],
            "stateMutability": "nonpayable",
            "type": "function"
        },
        {
            "inputs": [
                {
                    "internalType": "uint256",
                    "name": "claimId",
                    "type": "uint256"
                },
                {
                    "internalType": "uint256",
                    "name": "updatedAt",
                    "type": "uint256"
                }
            ],
            "name": "denyClaim",
            "outputs": [
                {
                    "internalType": "bool",
                    "name": "success",
                    "type": "bool"
                }
            ],
            "stateMutability": "view",
            "type": "function"
        },
        {
            "inputs": [
                {
                    "internalType": "uint256",
                    "name": "policyId",
                    "type": "uint256"
                }
            ],
            "name": "getAllClaimsByPolicyId",
            "outputs": [
                {
                    "components": [
                        {
                            "internalType": "uint256",
                            "name": "policyId",
                            "type": "uint256"
                        },
                        {
                            "internalType": "uint256",
                            "name": "claimAmount",
                            "type": "uint256"
                        },
                        {
                            "internalType": "bytes32",
                            "name": "reason",
                            "type": "bytes32"
                        },
                        {
                            "internalType": "enum PolicyManagement.ClaimStatus",
                            "name": "status",
                            "type": "uint8"
                        },
                        {
                            "internalType": "address[]",
                            "name": "insurers",
                            "type": "address[]"
                        },
                        {
                            "internalType": "uint256[]",
                            "name": "claimAmounts",
                            "type": "uint256[]"
                        },
                        {
                            "internalType": "address",
                            "name": "createdBy",
                            "type": "address"
                        },
                        {
                            "internalType": "uint256",
                            "name": "createdAt",
                            "type": "uint256"
                        },
                        {
                            "internalType": "uint256",
                            "name": "updatedAt",
                            "type": "uint256"
                        }
                    ],
                    "internalType": "struct PolicyManagement.Claim[]",
                    "name": "",
                    "type": "tuple[]"
                }
            ],
            "stateMutability": "view",
            "type": "function"
        },
        {
            "inputs": [],
            "name": "getAllPoliciesByAccount",
            "outputs": [
                {
                    "components": [
                        {
                            "internalType": "uint256",
                            "name": "vehicleId",
                            "type": "uint256"
                        },
                        {
                            "internalType": "address[]",
                            "name": "insurers",
                            "type": "address[]"
                        },
                        {
                            "components": [
                                {
                                    "internalType": "uint256",
                                    "name": "quotationId",
                                    "type": "uint256"
                                },
                                {
                                    "internalType": "uint256",
                                    "name": "chain",
                                    "type": "uint256"
                                },
                                {
                                    "internalType": "uint256",
                                    "name": "premium",
                                    "type": "uint256"
                                },
                                {
                                    "internalType": "address",
                                    "name": "insurer",
                                    "type": "address"
                                },
                                {
                                    "internalType": "uint256",
                                    "name": "coverage",
                                    "type": "uint256"
                                },
                                {
                                    "internalType": "uint256",
                                    "name": "coverageUsed",
                                    "type": "uint256"
                                },
                                {
                                    "internalType": "uint256",
                                    "name": "createdAt",
                                    "type": "uint256"
                                },
                                {
                                    "internalType": "uint256",
                                    "name": "updatedAt",
                                    "type": "uint256"
                                }
                            ],
                            "internalType": "struct PolicyManagement.Quotation[]",
                            "name": "quotations",
                            "type": "tuple[]"
                        },
                        {
                            "internalType": "uint256",
                            "name": "premium",
                            "type": "uint256"
                        },
                        {
                            "internalType": "uint256",
                            "name": "coverage",
                            "type": "uint256"
                        },
                        {
                            "internalType": "enum PolicyManagement.Status",
                            "name": "status",
                            "type": "uint8"
                        },
                        {
                            "internalType": "address",
                            "name": "user",
                            "type": "address"
                        },
                        {
                            "internalType": "uint256",
                            "name": "coverageUsed",
                            "type": "uint256"
                        },
                        {
                            "internalType": "uint256",
                            "name": "coverageRemaining",
                            "type": "uint256"
                        },
                        {
                            "internalType": "uint256",
                            "name": "createdAt",
                            "type": "uint256"
                        },
                        {
                            "internalType": "uint256",
                            "name": "updatedAt",
                            "type": "uint256"
                        }
                    ],
                    "internalType": "struct PolicyManagement.Policy[]",
                    "name": "",
                    "type": "tuple[]"
                }
            ],
            "stateMutability": "view",
            "type": "function"
        },
        {
            "inputs": [
                {
                    "internalType": "uint256",
                    "name": "claimId",
                    "type": "uint256"
                }
            ],
            "name": "getClaimById",
            "outputs": [
                {
                    "components": [
                        {
                            "internalType": "uint256",
                            "name": "policyId",
                            "type": "uint256"
                        },
                        {
                            "internalType": "uint256",
                            "name": "claimAmount",
                            "type": "uint256"
                        },
                        {
                            "internalType": "bytes32",
                            "name": "reason",
                            "type": "bytes32"
                        },
                        {
                            "internalType": "enum PolicyManagement.ClaimStatus",
                            "name": "status",
                            "type": "uint8"
                        },
                        {
                            "internalType": "address[]",
                            "name": "insurers",
                            "type": "address[]"
                        },
                        {
                            "internalType": "uint256[]",
                            "name": "claimAmounts",
                            "type": "uint256[]"
                        },
                        {
                            "internalType": "address",
                            "name": "createdBy",
                            "type": "address"
                        },
                        {
                            "internalType": "uint256",
                            "name": "createdAt",
                            "type": "uint256"
                        },
                        {
                            "internalType": "uint256",
                            "name": "updatedAt",
                            "type": "uint256"
                        }
                    ],
                    "internalType": "struct PolicyManagement.Claim",
                    "name": "",
                    "type": "tuple"
                }
            ],
            "stateMutability": "view",
            "type": "function"
        },
        {
            "inputs": [
                {
                    "internalType": "uint256",
                    "name": "policyId",
                    "type": "uint256"
                }
            ],
            "name": "getPolicyById",
            "outputs": [
                {
                    "components": [
                        {
                            "internalType": "uint256",
                            "name": "vehicleId",
                            "type": "uint256"
                        },
                        {
                            "internalType": "address[]",
                            "name": "insurers",
                            "type": "address[]"
                        },
                        {
                            "components": [
                                {
                                    "internalType": "uint256",
                                    "name": "quotationId",
                                    "type": "uint256"
                                },
                                {
                                    "internalType": "uint256",
                                    "name": "chain",
                                    "type": "uint256"
                                },
                                {
                                    "internalType": "uint256",
                                    "name": "premium",
                                    "type": "uint256"
                                },
                                {
                                    "internalType": "address",
                                    "name": "insurer",
                                    "type": "address"
                                },
                                {
                                    "internalType": "uint256",
                                    "name": "coverage",
                                    "type": "uint256"
                                },
                                {
                                    "internalType": "uint256",
                                    "name": "coverageUsed",
                                    "type": "uint256"
                                },
                                {
                                    "internalType": "uint256",
                                    "name": "createdAt",
                                    "type": "uint256"
                                },
                                {
                                    "internalType": "uint256",
                                    "name": "updatedAt",
                                    "type": "uint256"
                                }
                            ],
                            "internalType": "struct PolicyManagement.Quotation[]",
                            "name": "quotations",
                            "type": "tuple[]"
                        },
                        {
                            "internalType": "uint256",
                            "name": "premium",
                            "type": "uint256"
                        },
                        {
                            "internalType": "uint256",
                            "name": "coverage",
                            "type": "uint256"
                        },
                        {
                            "internalType": "enum PolicyManagement.Status",
                            "name": "status",
                            "type": "uint8"
                        },
                        {
                            "internalType": "address",
                            "name": "user",
                            "type": "address"
                        },
                        {
                            "internalType": "uint256",
                            "name": "coverageUsed",
                            "type": "uint256"
                        },
                        {
                            "internalType": "uint256",
                            "name": "coverageRemaining",
                            "type": "uint256"
                        },
                        {
                            "internalType": "uint256",
                            "name": "createdAt",
                            "type": "uint256"
                        },
                        {
                            "internalType": "uint256",
                            "name": "updatedAt",
                            "type": "uint256"
                        }
                    ],
                    "internalType": "struct PolicyManagement.Policy",
                    "name": "_policy",
                    "type": "tuple"
                }
            ],
            "stateMutability": "view",
            "type": "function"
        },
        {
            "inputs": [
                {
                    "internalType": "uint256",
                    "name": "quotationId",
                    "type": "uint256"
                }
            ],
            "name": "getQuotationById",
            "outputs": [
                {
                    "components": [
                        {
                            "internalType": "uint256",
                            "name": "quotationId",
                            "type": "uint256"
                        },
                        {
                            "internalType": "uint256",
                            "name": "chain",
                            "type": "uint256"
                        },
                        {
                            "internalType": "uint256",
                            "name": "premium",
                            "type": "uint256"
                        },
                        {
                            "internalType": "address",
                            "name": "insurer",
                            "type": "address"
                        },
                        {
                            "internalType": "uint256",
                            "name": "coverage",
                            "type": "uint256"
                        },
                        {
                            "internalType": "uint256",
                            "name": "coverageUsed",
                            "type": "uint256"
                        },
                        {
                            "internalType": "uint256",
                            "name": "createdAt",
                            "type": "uint256"
                        },
                        {
                            "internalType": "uint256",
                            "name": "updatedAt",
                            "type": "uint256"
                        }
                    ],
                    "internalType": "struct PolicyManagement.Quotation",
                    "name": "",
                    "type": "tuple"
                }
            ],
            "stateMutability": "view",
            "type": "function"
        },
        {
            "inputs": [],
            "name": "getQuotations",
            "outputs": [
                {
                    "components": [
                        {
                            "internalType": "uint256",
                            "name": "quotationId",
                            "type": "uint256"
                        },
                        {
                            "internalType": "uint256",
                            "name": "chain",
                            "type": "uint256"
                        },
                        {
                            "internalType": "uint256",
                            "name": "premium",
                            "type": "uint256"
                        },
                        {
                            "internalType": "address",
                            "name": "insurer",
                            "type": "address"
                        },
                        {
                            "internalType": "uint256",
                            "name": "coverage",
                            "type": "uint256"
                        },
                        {
                            "internalType": "uint256",
                            "name": "coverageUsed",
                            "type": "uint256"
                        },
                        {
                            "internalType": "uint256",
                            "name": "createdAt",
                            "type": "uint256"
                        },
                        {
                            "internalType": "uint256",
                            "name": "updatedAt",
                            "type": "uint256"
                        }
                    ],
                    "internalType": "struct PolicyManagement.Quotation[]",
                    "name": "",
                    "type": "tuple[]"
                }
            ],
            "stateMutability": "view",
            "type": "function"
        },
        {
            "inputs": [
                {
                    "internalType": "address",
                    "name": "",
                    "type": "address"
                }
            ],
            "name": "insurerQuotation",
            "outputs": [
                {
                    "internalType": "uint256",
                    "name": "quotationId",
                    "type": "uint256"
                },
                {
                    "internalType": "uint256",
                    "name": "chain",
                    "type": "uint256"
                },
                {
                    "internalType": "uint256",
                    "name": "premium",
                    "type": "uint256"
                },
                {
                    "internalType": "address",
                    "name": "insurer",
                    "type": "address"
                },
                {
                    "internalType": "uint256",
                    "name": "coverage",
                    "type": "uint256"
                },
                {
                    "internalType": "uint256",
                    "name": "coverageUsed",
                    "type": "uint256"
                },
                {
                    "internalType": "uint256",
                    "name": "createdAt",
                    "type": "uint256"
                },
                {
                    "internalType": "uint256",
                    "name": "updatedAt",
                    "type": "uint256"
                }
            ],
            "stateMutability": "view",
            "type": "function"
        },
        {
            "inputs": [
                {
                    "internalType": "address",
                    "name": "",
                    "type": "address"
                },
                {
                    "internalType": "uint256",
                    "name": "",
                    "type": "uint256"
                }
            ],
            "name": "policies",
            "outputs": [
                {
                    "internalType": "uint256",
                    "name": "vehicleId",
                    "type": "uint256"
                },
                {
                    "internalType": "uint256",
                    "name": "premium",
                    "type": "uint256"
                },
                {
                    "internalType": "uint256",
                    "name": "coverage",
                    "type": "uint256"
                },
                {
                    "internalType": "enum PolicyManagement.Status",
                    "name": "status",
                    "type": "uint8"
                },
                {
                    "internalType": "address",
                    "name": "user",
                    "type": "address"
                },
                {
                    "internalType": "uint256",
                    "name": "coverageUsed",
                    "type": "uint256"
                },
                {
                    "internalType": "uint256",
                    "name": "coverageRemaining",
                    "type": "uint256"
                },
                {
                    "internalType": "uint256",
                    "name": "createdAt",
                    "type": "uint256"
                },
                {
                    "internalType": "uint256",
                    "name": "updatedAt",
                    "type": "uint256"
                }
            ],
            "stateMutability": "view",
            "type": "function"
        },
        {
            "inputs": [
                {
                    "internalType": "uint256",
                    "name": "",
                    "type": "uint256"
                }
            ],
            "name": "policy",
            "outputs": [
                {
                    "internalType": "uint256",
                    "name": "vehicleId",
                    "type": "uint256"
                },
                {
                    "internalType": "uint256",
                    "name": "premium",
                    "type": "uint256"
                },
                {
                    "internalType": "uint256",
                    "name": "coverage",
                    "type": "uint256"
                },
                {
                    "internalType": "enum PolicyManagement.Status",
                    "name": "status",
                    "type": "uint8"
                },
                {
                    "internalType": "address",
                    "name": "user",
                    "type": "address"
                },
                {
                    "internalType": "uint256",
                    "name": "coverageUsed",
                    "type": "uint256"
                },
                {
                    "internalType": "uint256",
                    "name": "coverageRemaining",
                    "type": "uint256"
                },
                {
                    "internalType": "uint256",
                    "name": "createdAt",
                    "type": "uint256"
                },
                {
                    "internalType": "uint256",
                    "name": "updatedAt",
                    "type": "uint256"
                }
            ],
            "stateMutability": "view",
            "type": "function"
        },
        {
            "inputs": [
                {
                    "internalType": "uint256",
                    "name": "",
                    "type": "uint256"
                }
            ],
            "name": "quotation",
            "outputs": [
                {
                    "internalType": "uint256",
                    "name": "quotationId",
                    "type": "uint256"
                },
                {
                    "internalType": "uint256",
                    "name": "chain",
                    "type": "uint256"
                },
                {
                    "internalType": "uint256",
                    "name": "premium",
                    "type": "uint256"
                },
                {
                    "internalType": "address",
                    "name": "insurer",
                    "type": "address"
                },
                {
                    "internalType": "uint256",
                    "name": "coverage",
                    "type": "uint256"
                },
                {
                    "internalType": "uint256",
                    "name": "coverageUsed",
                    "type": "uint256"
                },
                {
                    "internalType": "uint256",
                    "name": "createdAt",
                    "type": "uint256"
                },
                {
                    "internalType": "uint256",
                    "name": "updatedAt",
                    "type": "uint256"
                }
            ],
            "stateMutability": "view",
            "type": "function"
        },
        {
            "inputs": [
                {
                    "internalType": "uint256",
                    "name": "",
                    "type": "uint256"
                }
            ],
            "name": "quotationIds",
            "outputs": [
                {
                    "internalType": "uint256",
                    "name": "",
                    "type": "uint256"
                }
            ],
            "stateMutability": "view",
            "type": "function"
        },
        {
            "inputs": [
                {
                    "internalType": "uint256",
                    "name": "",
                    "type": "uint256"
                },
                {
                    "internalType": "uint256",
                    "name": "",
                    "type": "uint256"
                }
            ],
            "name": "quotations",
            "outputs": [
                {
                    "internalType": "uint256",
                    "name": "quotationId",
                    "type": "uint256"
                },
                {
                    "internalType": "uint256",
                    "name": "chain",
                    "type": "uint256"
                },
                {
                    "internalType": "uint256",
                    "name": "premium",
                    "type": "uint256"
                },
                {
                    "internalType": "address",
                    "name": "insurer",
                    "type": "address"
                },
                {
                    "internalType": "uint256",
                    "name": "coverage",
                    "type": "uint256"
                },
                {
                    "internalType": "uint256",
                    "name": "coverageUsed",
                    "type": "uint256"
                },
                {
                    "internalType": "uint256",
                    "name": "createdAt",
                    "type": "uint256"
                },
                {
                    "internalType": "uint256",
                    "name": "updatedAt",
                    "type": "uint256"
                }
            ],
            "stateMutability": "view",
            "type": "function"
        },
        {
            "inputs": [
                {
                    "internalType": "uint256",
                    "name": "policyId",
                    "type": "uint256"
                },
                {
                    "internalType": "uint256",
                    "name": "claimId",
                    "type": "uint256"
                },
                {
                    "internalType": "uint256",
                    "name": "claimAmount",
                    "type": "uint256"
                },
                {
                    "internalType": "bytes32",
                    "name": "reason",
                    "type": "bytes32"
                }
            ],
            "name": "requestClaim",
            "outputs": [
                {
                    "internalType": "uint256",
                    "name": "",
                    "type": "uint256"
                }
            ],
            "stateMutability": "nonpayable",
            "type": "function"
        },
        {
            "inputs": [
                {
                    "internalType": "uint256",
                    "name": "quotationId",
                    "type": "uint256"
                },
                {
                    "internalType": "uint256",
                    "name": "premium",
                    "type": "uint256"
                },
                {
                    "internalType": "uint256",
                    "name": "coverage",
                    "type": "uint256"
                },
                {
                    "internalType": "uint256",
                    "name": "createdAt",
                    "type": "uint256"
                },
                {
                    "internalType": "uint256",
                    "name": "updatedAt",
                    "type": "uint256"
                }
            ],
            "name": "updateQuotation",
            "outputs": [
                {
                    "internalType": "bool",
                    "name": "success",
                    "type": "bool"
                }
            ],
            "stateMutability": "nonpayable",
            "type": "function"
        }
    ],
    "bytecode": "6080806040523460195760015f55612abf908161001e8239f35b5f80fdfe60806040526004361015610011575f80fd5b5f3560e01c8063090d8ad21461015457806329de1f381461014f578063379607f51461014a57806337bb65ea146101455780633cea5120146101405780634c2fb2551461013b5780635be60b301461013657806365b21d14146101315780637023e5c71461012c5780637fbe658c14610127578063825f4ed91461012257806386f1ce681461011d57806390b4f12b14610118578063bb0f2d0314610113578063ca37e4a61461010e578063cba5fa8814610109578063d09650b114610104578063df86885b146100ff578063e98f35db146100fa5763f894160e146100f5575f80fd5b61168b565b6115e0565b611572565b6114e8565b6111c9565b611179565b61102b565b610f98565b610e1c565b610d7e565b610ae8565b610a89565b6109ca565b6107d1565b61075a565b6106c0565b610602565b610555565b61046a565b610307565b90602080835192838152019201905f5b8181106101765750505090565b82516001600160a01b0316845260209384019390920191600101610169565b60e0809180518452602081015160208501526040810151604085015260018060a01b0360608201511660608501526080810151608085015260a081015160a085015260c081015160c08501520151910152565b90602080835192838152019201905f5b8181106102055750505090565b90919260206101008261021b6001948851610195565b0194019291016101f8565b634e487b7160e01b5f52602160045260245ffd5b6002111561024457565b610226565b9060028210156102445752565b90815181526101408061028f61027d60208601516101606020870152610160860190610159565b604086015185820360408701526101e8565b9360608101516060850152608081015160808501526102b660a082015160a0860190610249565b60c0818101516001600160a01b03169085015260e081015160e0850152610100810151610100850152610120810151610120850152015191015290565b906020610304928181520190610256565b90565b346103dc5760203660031901126103dc57600435610323611700565b5061033f61033a5f925f52600260205260405f2090565b61188e565b60c08101516001600160a01b031633036103725761036e91506103626001611952565b604051918291826102f3565b0390f35b60208101915f5b835180518210156103cc576103ae6103a261039584339461193e565b516001600160a01b031690565b6001600160a01b031690565b146103bb57600101610379565b505061036e91506103626001611952565b505061036e925061036290611952565b5f80fd5b634e487b7160e01b5f52604160045260245ffd5b610100810190811067ffffffffffffffff82111761041157604052565b6103e0565b90601f8019910116810190811067ffffffffffffffff82111761041157604052565b6040519061044861010083610416565b565b6040519061044861016083610416565b6040519061044861012083610416565b346103dc5760203660031901126103dc5760043567ffffffffffffffff81116103dc57366023820112156103dc5780600401359067ffffffffffffffff8211610411576040516104c4601f8401601f191660200182610416565b82815236602484840101116103dc575f60208461036e9560246104ef960183860137830101526121df565b6040519081529081906020820190565b6004111561024457565b9060048210156102445752565b9361053e919897969360c0969360e087019a8752602087015260408601526060850190610509565b6001600160a01b0316608083015260a08201520152565b346103dc5760203660031901126103dc576004355f52600860205260405f20805461036e60018301549260028101549060ff60038201541660018060a01b0360068301541690600860078401549301549360405197889788610516565b6001600160a01b038116036103dc57565b94919260e0969399989794919961010087019a87526020870152604086015260018060a01b03166060850152608084015260a083015260c08201520152565b346103dc5760203660031901126103dc5760043561061f816105b2565b60018060a01b03165f52600460205260405f20805461036e60018301549260028101549060018060a01b0360038201541660048201546005830154916007600685015494015494604051988998896105c3565b959293610100979461069f929b9a99969361012089019c8952602089015260408801526060870190610249565b6001600160a01b0316608085015260a084015260c083015260e08201520152565b346103dc5760203660031901126103dc576004355f52600260205260405f20805461036e60038301549160048401549360058101546006820154600783015491600960088501549401549460405198899860ff60018060a01b038560081c169416928a610672565b634e487b7160e01b5f52603260045260245ffd5b8054821015610755575f5260205f209060031b01905f90565b610728565b346103dc5760403660031901126103dc57600435602435905f52600560205260405f209081548110156103dc576107909161073c565b50805461036e60018301549260028101549060018060a01b0360038201541660048201546005830154916007600685015494015494604051988998896105c3565b346103dc5760403660031901126103dc57600435602435906108046107ff5f925f52600860205260405f2090565b6123ac565b6060810160018151610815816104ff565b61081e816104ff565b148015906108e3575b80156108c0575b61083790612437565b6108548151610845816104ff565b61084e816104ff565b1561249a565b60808201925f5b845180518210156108ac576108776103a261039584339461193e565b146108845760010161085b565b5050610100925061089f9061089960016124f2565b60029052565b01526040515f8152602090f35b505061010093509061089961089f926124f2565b50610837600282516108d1816104ff565b6108da816104ff565b1415905061082e565b50600381516108f1816104ff565b6108fa816104ff565b1415610827565b90602080835192838152019201905f5b81811061091e5750505090565b8251845260209384019390920191600101610911565b9081518152602082015160208201526040820151604082015261095f60608301516060830190610509565b6101008061099361098160808601516101206080870152610120860190610159565b60a086015185820360a0870152610901565b60c0808601516001600160a01b0316908501529360e081015160e0850152015191015290565b906020610304928181520190610934565b346103dc5760203660031901126103dc576004356109e6612549565b506109fd6107ff5f925f52600860205260405f2090565b610a09815115156125a0565b60c08101516001600160a01b03163303610a385761036e9150610a2c6001611952565b604051918291826109b9565b60808101915f5b83518051821015610a7957610a5b6103a261039584339461193e565b14610a6857600101610a3f565b505061036e9150610a2c6001611952565b505061036e9250610a2c90611952565b346103dc5760203660031901126103dc576004355f52600160205260405f20805461036e60018301549260028101549060018060a01b0360038201541660048201546005830154916007600685015494015494604051988998896105c3565b346103dc5760403660031901126103dc576004355f8181526008602052604081206024359290610b2181545f52600260205260405f2090565b906003810194610b53610b35875460ff1690565b610b3e816104ff565b60018114801590610d0b575b610845906125df565b5f600483018054915b828110610cc4575b505050610b746001939495612637565b610b9c60078501968754151580610cb2575b610b8f90612691565b805460ff19166001179055565b600882015501905f8080808554818115610ca9575b3390f115610ca457610bc68454835490612718565b84556006810191610bda8354825490612725565b8355549354915490604051847ff92604239a3f432b8364081ec53d74c5e433230bd6f589f9f191d45b6bca251a339280610c2e87898c84606091949360019360808301968352602083015260408201520152565b0390a382159081610c96575b50610c4b575b6040515f8152602090f35b604080519485526020850192909252908301526003606083015233917ff92604239a3f432b8364081ec53d74c5e433230bd6f589f9f191d45b6bca251a90608090a35f808080610c40565b60049150015481145f610c3a565b61270d565b506108fc610bb1565b50600686015460048701541415610b86565b6103a2610ceb610cd48385611164565b9054339360039290921b1c6001600160a01b031690565b14610cf857600101610b5c565b5060019650610b7491508690505f610b64565b50610d15816104ff565b6003811415610b4a565b602081016020825282518091526040820191602060408360051b8301019401925f915b838310610d5157505050505090565b9091929394602080610d6f600193603f198682030187528951610934565b97019301930191939290610d42565b346103dc5760203660031901126103dc576004355f52600760205260405f208054610da8816117b6565b91610db66040519384610416565b81835260208301905f5260205f205f915b838310610ddc576040518061036e8782610d1f565b60096020600192610dec856123ac565b815201920192019190610dc7565b60a09060031901126103dc576004359060243590604435906064359060843590565b346103dc57610e2a36610dfa565b845f95939552600160205260405f209160048301958654610f3a57848455600284018690556003840180546001600160a01b031916331790557f5b35bd822fb0a31438a141b2ddffa698da5848b56277ed4284c2df09a005bbea96610f2c94610f01918390556006810184905560078101859055335f908152600460205260409020610ebc908290611ef1565b611ef1565b610ed281610eb7895f52600160205260405f2090565b60015f5260056020527f1471eb6eb2c5e789fc3de43f8ce62938c7d1836ec861730447e2ada8fd81017b612763565b604051958695869192608093969594919660a084019784526020840152604083015260608201520152565b0390a16040515f8152602090f35b60405162461bcd60e51b815260206004820152601860248201527f51756f746174696f6e20416c72656164792065786973747300000000000000006044820152606490fd5b8054821015610755575f52600a60205f20910201905f90565b346103dc5760403660031901126103dc57600435610fb5816105b2565b6001600160a01b03165f9081526003602052604090208054602435908110156103dc57610fe191610f7f565b50805461036e60038301549160048401549360058101546006820154600783015491600960088501549401549460405198899860ff60018060a01b038560081c169416928a610672565b346103dc5761103936610dfa565b93909192611065600461105c3360018060a01b03165f52600460205260405f2090565b01541515612790565b611077825f52600160205260405f2090565b948160028701558460048701558060078701556110a886610eb73360018060a01b03165f52600460205260405f2090565b60015f5260056020527f1471eb6eb2c5e789fc3de43f8ce62938c7d1836ec861730447e2ada8fd81017b935f5b85548110156111135780856110ec6001938961073c565b5054146110fa575b016110d5565b61110e89611108838a61073c565b90612754565b6110f4565b506040805194855260208501939093529183019490945260608201526080810192909252507f092e809964b655bf79f77f552dcde7155760449d138004c6d136844565b86996908060a08101610f2c565b8054821015610755575f5260205f2001905f90565b346103dc5760203660031901126103dc576004356006548110156103dc5760209060065f527ff652222313e28459528d920b65115c16c04f3efc82aaedc97be59f3f377c0d3f0154604051908152f35b346103dc5760803660031901126103dc57600435602435604435906111f961033a845f52600260205260405f2090565b60c081015190919061121e906001600160a01b03166001600160a01b03163314611952565b61123e60a083015161122f8161023a565b6112388161023a565b156127dc565b610100820190611251848351101561281f565b6112666107ff825f52600860205260405f2090565b92606084019261128c6003855161127c816104ff565b611285816104ff565b141561287b565b8592604083019661129e8851516128be565b956112aa8951516128be565b975f955f5b8b518051821080611480575b1561138a57816112ca9161193e565b516080810151908c8c6112e360a0840194855190612718565b806112fc575b50505050506112f7906128f0565b6112af565b9b6060936113556112f7979f9461136e979f9061135061135b96869384818b115f146113795761133b611341929c8d995b01516001600160a01b031690565b9261193e565b6001600160a01b039091169052565b61193e565b526128f0565b9a611367838251612725565b9052612718565b98905f8c8c826112e9565b611341915061133b8b9c8d9961132d565b5050849a50611450929561141f8361141a61036e9f7fc87683691ce0c7c366b280e4dca2f26e648fc1c8deba1f494f554db61f15f0c89e60e0979a9e61146d9d8b9f6113d690156128fe565b8082528252602085019e8f5282855260643560408601525f8d523360c0860152608085015260a08401524287840152426101008401525f52600760205260405f2090565b612a5c565b61143a866114358c5f52600860205260405f2090565b6129ca565b611445858251612718565b905201918251612725565b9052519251905190611461826104ff565b60405194859485612732565b0390a16040519081529081906020820190565b508915156112bb565b602081016020825282518091526040820191602060408360051b8301019401925f915b8383106114bb57505050505090565b90919293946020806114d9600193603f198682030187528951610256565b970193019301919392906114ac565b346103dc575f3660031901126103dc57335f52600360205260405f20805461150f816117b6565b9161151d6040519384610416565b81835260208301905f5260205f205f915b838310611543576040518061036e8782611489565b600a60206001926115538561188e565b81520192019201919061152e565b610100810192916104489190610195565b346103dc5760203660031901126103dc576004355f60e0604051611595816103f4565b8281528260208201528260408201528260608201528260808201528260a08201528260c082015201525f52600160205261036e6115d460405f206117ce565b60405191829182611561565b346103dc575f3660031901126103dc5760015f5260056020526116227f1471eb6eb2c5e789fc3de43f8ce62938c7d1836ec861730447e2ada8fd81017b61182c565b6040518091602082016020835281518091526020604084019201905f5b81811061164d575050500390f35b919350916020610100826116646001948851610195565b01940191019184939261163f565b8054821015610755575f52600960205f20910201905f90565b346103dc5760403660031901126103dc57600435602435905f52600760205260405f209081548110156103dc576116c191611672565b50805461036e60018301549260028101549060ff60038201541660018060a01b0360068301541690600860078401549301549360405197889788610516565b60405190610160820182811067ffffffffffffffff821117610411576040525f6101408382815260606020820152606060408201528260608201528260808201528260a08201528260c08201528260e082015282610100820152826101208201520152565b90604051918281549182825260208201905f5260205f20925f5b81811061179457505061044892500383610416565b84546001600160a01b031683526001948501948794506020909301920161177f565b67ffffffffffffffff81116104115760051b60200190565b9060076117d9610438565b83548152600184015460208201526002840154604082015260038401546001600160a01b031660608201529260048101546080850152600581015460a0850152600681015460c0850152015460e0830152565b908154611838816117b6565b926118466040519485610416565b81845260208401905f5260205f205f915b8383106118645750505050565b60086020600192611874856117ce565b815201920192019190611857565b60028210156102445752565b90600961189961044a565b92805484526118aa60018201611765565b60208501526118bb6002820161182c565b6040850152600381015460608501526004810154608085015261191461190460058301546118f56118ec8260ff1690565b60a08901611882565b60081c6001600160a01b031690565b6001600160a01b031660c0860152565b600681015460e0850152600781015461010085015260088101546101208501520154610140830152565b80518210156107555760209160051b010190565b1561195957565b60405162461bcd60e51b8152602060048201526013602482015272556e417574686f72697a65642041636365737360681b6044820152606490fd5b5190610448826105b2565b81601f820112156103dc578051906119b6826117b6565b926119c46040519485610416565b82845260208085019360081b830101918183116103dc57602001925b8284106119ee575050505090565b610100848303126103dc57602061010091604051611a0b816103f4565b86518152828701518382015260408701516040820152611a2d60608801611994565b60608201526080870151608082015260a087015160a082015260c087015160c082015260e087015160e08201528152019301926119e0565b610100818303126103dc57805192602082015167ffffffffffffffff81116103dc57820183601f820112156103dc57805190611aa0826117b6565b91611aae6040519384610416565b80835260208084019160051b830101918683116103dc57602001905b828210611b15575050509260408301519067ffffffffffffffff82116103dc57611af591840161199f565b9160608101519160808201519160a08101519160e060c083015192015190565b602080918351611b24816105b2565b815201910190611aca565b634e487b7160e01b5f525f60045260245ffd5b634e487b7160e01b5f52601160045260245ffd5b919091828210611b6557505050565b5f5260205f2091820191015b818110611b7c575050565b5f8155600101611b71565b5f61044891805490828155611b56565b90600160401b811161041157815481835561044892611b56565b81519167ffffffffffffffff831161041157602090611bd08484611b97565b01905f5260205f205f5b838110611be75750505050565b82516001600160a01b031681830155602090920191600101611bda565b8054905f815581611c13575050565b6001600160fd1b0382168203611c72575f5260205f209060031b8101905b818110611c3c575050565b805f600892555f60018201555f60028201555f60038201555f60048201555f60058201555f60068201555f600782015501611c31565b611b42565b600160401b821161041157805490828155818310611c9457505050565b6001600160fd1b0382168203611c72576001600160fd1b0383168303611c72575f5260205f209060031b81019160031b015b818110611cd1575050565b805f600892555f60018201555f60028201555f60038201555f60048201555f60058201555f60068201555f600782015501611cc6565b6020825192611d168484611c77565b01905f5260205f205f915b838310611d2e5750505050565b600860208260e06001945180518755838101518688015560408101516002880155611d88611d65606083015160018060a01b031690565b6003890180546001600160a01b0319166001600160a01b03909216919091179055565b6080810151600488015560a0810151600588015560c081015160068801550151600786015501920192019190611d21565b9060028110156102445760ff80198354169116179055565b9061014060099180518455611ded602082015160018601611bb1565b611dfe604082015160028601611d07565b6060810151600385015560808101516004850155611e6160058501611e3060a0840151611e2a8161023a565b82611db9565b60c08301516001600160a01b03165b8154610100600160a81b03191660089190911b610100600160a81b0316179055565b60e08101516006850155610100810151600785015561012081015160088501550151910155565b818114611eed5781549167ffffffffffffffff831161041157611eab8383611b97565b5f5260205f20905f5260205f208154915f925b848410611ecc575050505050565b600191820180546001600160a01b0390921684860155939091019290611ebe565b5050565b90808203611efd575050565b80548255600180820154908301556002808201549083015560038082015490830180546001600160a01b0319166001600160a01b0390921691909117905560079081906004810154600485015560058101546005850155600681015460068501550154910155565b818114611eed57815491611f798383611c77565b5f5260205f20905f5260205f205f915b838310611f965750505050565b60088082611fa660019486611ef1565b01920192019190611f89565b90808203611fbe575050565b6009818192548455611fd66001820160018601611e88565b611fe66002820160028601611f65565b600381015460038501556004810154600485015561202c60058501611e3f6005840161201c612016825460ff1690565b84611db9565b5460081c6001600160a01b031690565b6006810154600685015560078101546007850155600881015460088501550154910155565b8054600160401b8110156104115761206e91600182018155610f7f565b91909161207e5761044891611fb2565b611b2f565b818114611eed57815491600160401b83116104115781548383558084106120ec575b506120b66120c0915f5260205f2090565b915f5260205f2090565b5f915b8383106120d05750505050565b600a80826120e060019486611fb2565b019201920191906120c3565b80600a0290600a820403611c725783600a02600a81048503611c7257835f5260205f2091820191015b81811061212257506120a5565b805f600a925561213460018201611b87565b61214060028201611c04565b5f60038201555f60048201555f60058201555f60068201555f60078201555f60088201555f600982015501612115565b939290919695949660c08501928552602085015260018060a01b0316604084015260c060608401528151809152602060e084019201905f5b8181106121c0575050509060a0919460808201520152565b82516001600160a01b03168452602093840193909201916001016121a8565b6121f56122649160208082518301019101611a65565b9194612205999697989199611700565b86815260608101869052608081018590526020810189905260408101919091525f60e082015261010081018490523360c082015289610120820152826101408201525f60a082015261225f895f52600260205260405f2090565b611dd1565b5f5b86518110156122d457806122ce61229e6122856103956001958c61193e565b6001600160a01b03165f90815260036020526040902090565b6122b96122b38c5f52600260205260405f2090565b82612051565b6122c9612285610395858d61193e565b612083565b01612266565b50612352908795987f45ac8ee4bc2db292b43ba9f6b8d7b63502ea9b90ddd2bcddd55b3221a8aebe08959761234461231c3360018060a01b03165f52600360205260405f2090565b6123316122b38b5f52600260205260405f2090565b335f908152600360205260409020612083565b604051958695339187612170565b0390a390565b60048210156102445752565b90604051918281549182825260208201905f5260205f20925f5b81811061239357505061044892500383610416565b845483526001948501948794506020909301920161237e565b9060086123b761045a565b928054845260018101546020850152600281015460408501526123ea6123e1600383015460ff1690565b60608601612358565b6123f660048201611765565b608085015261240760058201612364565b60a08501526006810154612423906001600160a01b0316611904565b600781015460e08501520154610100830152565b1561243e57565b60405162461bcd60e51b815260206004820152602e60248201527f436c61696d20616c726561647920617070726f766564206f7220636f6d706c6560448201526d746564206f722064656e6965642160901b6064820152608490fd5b156124a157565b60405162461bcd60e51b8152602060048201526024808201527f52657175657374656420436c61696d206973206e6f7420696e69746961746564604482015263081e595d60e21b6064820152608490fd5b156124f957565b60405162461bcd60e51b815260206004820152602260248201527f4f6e6c7920417574686f72697a656420696e7375726572732063616e2064656e6044820152613c9760f11b6064820152608490fd5b60405190610120820182811067ffffffffffffffff821117610411576040525f6101008382815282602082015282604082015282606082015260606080820152606060a08201528260c08201528260e08201520152565b156125a757565b60405162461bcd60e51b815260206004820152601060248201526f21b630b4b6903737ba103337bab7321760811b6044820152606490fd5b156125e657565b60405162461bcd60e51b8152602060048201526024808201527f436c61696d20616c726561647920617070726f766564206f7220636f6d706c656044820152637465642160e01b6064820152608490fd5b1561263e57565b60405162461bcd60e51b815260206004820152602560248201527f4f6e6c7920417574686f72697a656420696e7375726572732063616e206170706044820152643937bb329760d91b6064820152608490fd5b1561269857565b60405162461bcd60e51b815260206004820152602f60248201527f436f6d706c65746520436f76657261676520616d6f756e74206861732062656560448201526e37103ab9b2b21030b63932b0b23c9760891b6064820152608490fd5b9060048110156102445760ff80198354169116179055565b6040513d5f823e3d90fd5b91908203918211611c7257565b91908201809211611c7257565b6104489360609296959360808301978352602083015260408201520190610509565b919061207e5761044891611ef1565b8054600160401b811015610411576127809160018201815561073c565b91909161207e5761044891611ef1565b1561279757565b60405162461bcd60e51b815260206004820152601960248201527f51756f746174696f6e20646f6573206e6f7420657869737473000000000000006044820152606490fd5b156127e357565b60405162461bcd60e51b8152602060048201526014602482015273506f6c696379206973206e6f742061637469766560601b6044820152606490fd5b1561282657565b60405162461bcd60e51b815260206004820152602760248201527f436c61696d20616d6f756e7420657863656564732072656d61696e696e6720636044820152666f76657261676560c81b6064820152608490fd5b1561288257565b60405162461bcd60e51b8152602060048201526014602482015273436c61696d20616c72656164792065786973747360601b6044820152606490fd5b906128c8826117b6565b6128d56040519182610416565b82815280926128e6601f19916117b6565b0190602036910137565b5f198114611c725760010190565b1561290557565b60405162461bcd60e51b815260206004820152603860248201527f4e6f7420656e6f75676820636f7665726167652066726f6d2071756f7461746960448201527f6f6e7320746f2066756c66696c6c2074686520636c61696d00000000000000006064820152608490fd5b81519167ffffffffffffffff831161041157600160401b83116104115760209061299f84845481865585611b56565b01905f5260205f205f5b8381106129b65750505050565b6001906020845194019381840155016129a9565b90610100600891805184556020810151600185015560408101516002850155612a0360608201516129fa816104ff565b600386016126f5565b612a14608082015160048601611bb1565b612a2560a082015160058601612970565b60c08101516006850180546001600160a01b0319166001600160a01b0390921691909117905560e081015160078501550151910155565b8054600160401b81101561041157612a7991600182018155611672565b91909161207e57610448916129ca56fea26469706673582212203b4e4d39c595ffe884075feae2ba3d1f546be0e2ddf39d875c8e4b630ad568cc64736f6c634300081b0033",
    "sourcePath": "/home/boss/Work/Decimal/hackathons/ethOnline/EthOnline2024/backend/smart-contracts/contracts/PolicyManagement.sol",
    "compiler": {
        "name": "solc",
        "version": "0.8.27+commit.40a35a09"
    },
    "functionHashes": {
        "addQuotation(uint256,uint256,uint256,uint256,uint256)": "86f1ce68",
        "approveClaim(uint256,uint256)": "7fbe658c",
        "claim(uint256)": "379607f5",
        "claims(uint256,uint256)": "f894160e",
        "createPolicy(bytes)": "29de1f38",
        "denyClaim(uint256,uint256)": "5be60b30",
        "getAllClaimsByPolicyId(uint256)": "825f4ed9",
        "getAllPoliciesByAccount()": "d09650b1",
        "getClaimById(uint256)": "65b21d14",
        "getPolicyById(uint256)": "090d8ad2",
        "getQuotationById(uint256)": "df86885b",
        "getQuotations()": "e98f35db",
        "insurerQuotation(address)": "37bb65ea",
        "policies(address,uint256)": "90b4f12b",
        "policy(uint256)": "3cea5120",
        "quotation(uint256)": "7023e5c7",
        "quotationIds(uint256)": "ca37e4a6",
        "quotations(uint256,uint256)": "4c2fb255",
        "requestClaim(uint256,uint256,uint256,bytes32)": "cba5fa88",
        "updateQuotation(uint256,uint256,uint256,uint256,uint256)": "bb0f2d03"
    },
    "gasEstimates": {
        "creation": {
            "codeDepositCost": "2188600",
            "executionCost": "24447",
            "totalCost": "2213047"
        },
        "external": {
            "addQuotation(uint256,uint256,uint256,uint256,uint256)": "infinite",
            "approveClaim(uint256,uint256)": "infinite",
            "claim(uint256)": "15294",
            "claims(uint256,uint256)": "20024",
            "createPolicy(bytes)": "infinite",
            "denyClaim(uint256,uint256)": "infinite",
            "getAllClaimsByPolicyId(uint256)": "infinite",
            "getAllPoliciesByAccount()": "infinite",
            "getClaimById(uint256)": "infinite",
            "getPolicyById(uint256)": "infinite",
            "getQuotationById(uint256)": "infinite",
            "getQuotations()": "infinite",
            "insurerQuotation(address)": "17470",
            "policies(address,uint256)": "22122",
            "policy(uint256)": "17501",
            "quotation(uint256)": "17498",
            "quotationIds(uint256)": "4714",
            "quotations(uint256,uint256)": "21789",
            "requestClaim(uint256,uint256,uint256,bytes32)": "infinite",
            "updateQuotation(uint256,uint256,uint256,uint256,uint256)": "infinite"
        }
    }
}