{
  "_format": "hh-sol-artifact-1",
  "contractName": "PolicyManagement",
  "sourceName": "contracts/PolicyManagement.sol",
  "abi": [
    {
      "inputs": [],
      "stateMutability": "nonpayable",
      "type": "constructor"
    },
    {
      "anonymous": false,
      "inputs": [
        {
          "indexed": true,
          "internalType": "uint256",
          "name": "policyId",
          "type": "uint256"
        },
        {
          "indexed": true,
          "internalType": "uint256",
          "name": "claimId",
          "type": "uint256"
        },
        {
          "indexed": false,
          "internalType": "uint256",
          "name": "claimAmount",
          "type": "uint256"
        },
        {
          "indexed": false,
          "internalType": "enum PolicyManagement.ClaimStatus",
          "name": "status",
          "type": "uint8"
        }
      ],
      "name": "ClaimRequested",
      "type": "event"
    },
    {
      "anonymous": false,
      "inputs": [
        {
          "indexed": true,
          "internalType": "uint256",
          "name": "claimId",
          "type": "uint256"
        },
        {
          "indexed": false,
          "internalType": "enum PolicyManagement.ClaimStatus",
          "name": "status",
          "type": "uint8"
        }
      ],
      "name": "ClaimStatusUpdated",
      "type": "event"
    },
    {
      "anonymous": false,
      "inputs": [
        {
          "indexed": true,
          "internalType": "uint256",
          "name": "policyId",
          "type": "uint256"
        },
        {
          "indexed": true,
          "internalType": "uint256",
          "name": "vehicleId",
          "type": "uint256"
        },
        {
          "indexed": false,
          "internalType": "uint256",
          "name": "premium",
          "type": "uint256"
        },
        {
          "indexed": false,
          "internalType": "uint256",
          "name": "coverage",
          "type": "uint256"
        },
        {
          "indexed": true,
          "internalType": "address",
          "name": "user",
          "type": "address"
        },
        {
          "indexed": false,
          "internalType": "address[]",
          "name": "insurers",
          "type": "address[]"
        }
      ],
      "name": "PolicyCreated",
      "type": "event"
    },
    {
      "anonymous": false,
      "inputs": [
        {
          "indexed": true,
          "internalType": "uint256",
          "name": "quotationId",
          "type": "uint256"
        },
        {
          "indexed": false,
          "internalType": "uint256",
          "name": "premium",
          "type": "uint256"
        },
        {
          "indexed": false,
          "internalType": "uint256",
          "name": "coverage",
          "type": "uint256"
        }
      ],
      "name": "QuotationAdded",
      "type": "event"
    },
    {
      "anonymous": false,
      "inputs": [
        {
          "indexed": true,
          "internalType": "uint256",
          "name": "quotationId",
          "type": "uint256"
        },
        {
          "indexed": false,
          "internalType": "uint256",
          "name": "premium",
          "type": "uint256"
        },
        {
          "indexed": false,
          "internalType": "uint256",
          "name": "coverage",
          "type": "uint256"
        }
      ],
      "name": "QuotationUpdated",
      "type": "event"
    },
    {
      "inputs": [
        {
          "internalType": "uint256",
          "name": "premium",
          "type": "uint256"
        },
        {
          "internalType": "uint256",
          "name": "coverage",
          "type": "uint256"
        },
        {
          "internalType": "uint256",
          "name": "chain",
          "type": "uint256"
        }
      ],
      "name": "addQuotation",
      "outputs": [
        {
          "internalType": "uint256",
          "name": "",
          "type": "uint256"
        }
      ],
      "stateMutability": "nonpayable",
      "type": "function"
    },
    {
      "inputs": [
        {
          "internalType": "uint256",
          "name": "claimId",
          "type": "uint256"
        }
      ],
      "name": "approveClaim",
      "outputs": [],
      "stateMutability": "nonpayable",
      "type": "function"
    },
    {
      "inputs": [
        {
          "internalType": "uint256",
          "name": "",
          "type": "uint256"
        }
      ],
      "name": "claims",
      "outputs": [
        {
          "internalType": "uint256",
          "name": "policyId",
          "type": "uint256"
        },
        {
          "internalType": "uint256",
          "name": "claimAmount",
          "type": "uint256"
        },
        {
          "internalType": "bytes32",
          "name": "reason",
          "type": "bytes32"
        },
        {
          "internalType": "enum PolicyManagement.ClaimStatus",
          "name": "status",
          "type": "uint8"
        },
        {
          "internalType": "address",
          "name": "createdBy",
          "type": "address"
        },
        {
          "internalType": "uint256",
          "name": "createdAt",
          "type": "uint256"
        },
        {
          "internalType": "uint256",
          "name": "updatedAt",
          "type": "uint256"
        }
      ],
      "stateMutability": "view",
      "type": "function"
    },
    {
      "inputs": [
        {
          "internalType": "uint256",
          "name": "vehicleId",
          "type": "uint256"
        },
        {
          "internalType": "uint256[]",
          "name": "quotationIds",
          "type": "uint256[]"
        }
      ],
      "name": "createPolicy",
      "outputs": [
        {
          "internalType": "uint256",
          "name": "",
          "type": "uint256"
        }
      ],
      "stateMutability": "nonpayable",
      "type": "function"
    },
    {
      "inputs": [
        {
          "internalType": "uint256",
          "name": "claimId",
          "type": "uint256"
        }
      ],
      "name": "denyClaim",
      "outputs": [],
      "stateMutability": "nonpayable",
      "type": "function"
    },
    {
      "inputs": [
        {
          "internalType": "uint256",
          "name": "claimId",
          "type": "uint256"
        }
      ],
      "name": "getClaim",
      "outputs": [
        {
          "components": [
            {
              "internalType": "uint256",
              "name": "policyId",
              "type": "uint256"
            },
            {
              "internalType": "uint256",
              "name": "claimAmount",
              "type": "uint256"
            },
            {
              "internalType": "bytes32",
              "name": "reason",
              "type": "bytes32"
            },
            {
              "internalType": "enum PolicyManagement.ClaimStatus",
              "name": "status",
              "type": "uint8"
            },
            {
              "internalType": "address[]",
              "name": "insurers",
              "type": "address[]"
            },
            {
              "internalType": "uint256[]",
              "name": "claimAmounts",
              "type": "uint256[]"
            },
            {
              "internalType": "address",
              "name": "createdBy",
              "type": "address"
            },
            {
              "internalType": "uint256",
              "name": "createdAt",
              "type": "uint256"
            },
            {
              "internalType": "uint256",
              "name": "updatedAt",
              "type": "uint256"
            }
          ],
          "internalType": "struct PolicyManagement.Claim",
          "name": "",
          "type": "tuple"
        }
      ],
      "stateMutability": "view",
      "type": "function"
    },
    {
      "inputs": [
        {
          "internalType": "address",
          "name": "insurer",
          "type": "address"
        }
      ],
      "name": "getInsurerPolicies",
      "outputs": [
        {
          "internalType": "uint256[]",
          "name": "",
          "type": "uint256[]"
        }
      ],
      "stateMutability": "view",
      "type": "function"
    },
    {
      "inputs": [
        {
          "internalType": "uint256",
          "name": "policyId",
          "type": "uint256"
        }
      ],
      "name": "getPolicy",
      "outputs": [
        {
          "components": [
            {
              "internalType": "uint256",
              "name": "vehicleId",
              "type": "uint256"
            },
            {
              "internalType": "address[]",
              "name": "insurers",
              "type": "address[]"
            },
            {
              "internalType": "uint256[]",
              "name": "quotationIds",
              "type": "uint256[]"
            },
            {
              "internalType": "uint256",
              "name": "premium",
              "type": "uint256"
            },
            {
              "internalType": "uint256",
              "name": "coverage",
              "type": "uint256"
            },
            {
              "internalType": "enum PolicyManagement.Status",
              "name": "status",
              "type": "uint8"
            },
            {
              "internalType": "address",
              "name": "user",
              "type": "address"
            },
            {
              "internalType": "uint256",
              "name": "coverageUsed",
              "type": "uint256"
            },
            {
              "internalType": "uint256",
              "name": "coverageRemaining",
              "type": "uint256"
            },
            {
              "internalType": "uint256",
              "name": "createdAt",
              "type": "uint256"
            },
            {
              "internalType": "uint256",
              "name": "updatedAt",
              "type": "uint256"
            }
          ],
          "internalType": "struct PolicyManagement.Policy",
          "name": "",
          "type": "tuple"
        }
      ],
      "stateMutability": "view",
      "type": "function"
    },
    {
      "inputs": [
        {
          "internalType": "uint256",
          "name": "policyId",
          "type": "uint256"
        }
      ],
      "name": "getPolicyClaims",
      "outputs": [
        {
          "internalType": "uint256[]",
          "name": "",
          "type": "uint256[]"
        }
      ],
      "stateMutability": "view",
      "type": "function"
    },
    {
      "inputs": [],
      "name": "getQuotations",
      "outputs": [
        {
          "components": [
            {
              "internalType": "uint256",
              "name": "quotationId",
              "type": "uint256"
            },
            {
              "internalType": "uint256",
              "name": "chain",
              "type": "uint256"
            },
            {
              "internalType": "uint256",
              "name": "premium",
              "type": "uint256"
            },
            {
              "internalType": "address",
              "name": "insurer",
              "type": "address"
            },
            {
              "internalType": "uint256",
              "name": "coverage",
              "type": "uint256"
            },
            {
              "internalType": "uint256",
              "name": "coverageUsed",
              "type": "uint256"
            },
            {
              "internalType": "uint256",
              "name": "createdAt",
              "type": "uint256"
            },
            {
              "internalType": "uint256",
              "name": "updatedAt",
              "type": "uint256"
            }
          ],
          "internalType": "struct PolicyManagement.Quotation[]",
          "name": "",
          "type": "tuple[]"
        }
      ],
      "stateMutability": "view",
      "type": "function"
    },
    {
      "inputs": [
        {
          "internalType": "address",
          "name": "user",
          "type": "address"
        }
      ],
      "name": "getUserPolicies",
      "outputs": [
        {
          "internalType": "uint256[]",
          "name": "",
          "type": "uint256[]"
        }
      ],
      "stateMutability": "view",
      "type": "function"
    },
    {
      "inputs": [
        {
          "internalType": "address",
          "name": "",
          "type": "address"
        },
        {
          "internalType": "uint256",
          "name": "",
          "type": "uint256"
        }
      ],
      "name": "insurerPolicies",
      "outputs": [
        {
          "internalType": "uint256",
          "name": "",
          "type": "uint256"
        }
      ],
      "stateMutability": "view",
      "type": "function"
    },
    {
      "inputs": [
        {
          "internalType": "uint256",
          "name": "",
          "type": "uint256"
        }
      ],
      "name": "policies",
      "outputs": [
        {
          "internalType": "uint256",
          "name": "vehicleId",
          "type": "uint256"
        },
        {
          "internalType": "uint256",
          "name": "premium",
          "type": "uint256"
        },
        {
          "internalType": "uint256",
          "name": "coverage",
          "type": "uint256"
        },
        {
          "internalType": "enum PolicyManagement.Status",
          "name": "status",
          "type": "uint8"
        },
        {
          "internalType": "address",
          "name": "user",
          "type": "address"
        },
        {
          "internalType": "uint256",
          "name": "coverageUsed",
          "type": "uint256"
        },
        {
          "internalType": "uint256",
          "name": "coverageRemaining",
          "type": "uint256"
        },
        {
          "internalType": "uint256",
          "name": "createdAt",
          "type": "uint256"
        },
        {
          "internalType": "uint256",
          "name": "updatedAt",
          "type": "uint256"
        }
      ],
      "stateMutability": "view",
      "type": "function"
    },
    {
      "inputs": [
        {
          "internalType": "uint256",
          "name": "",
          "type": "uint256"
        },
        {
          "internalType": "uint256",
          "name": "",
          "type": "uint256"
        }
      ],
      "name": "policyClaims",
      "outputs": [
        {
          "internalType": "uint256",
          "name": "",
          "type": "uint256"
        }
      ],
      "stateMutability": "view",
      "type": "function"
    },
    {
      "inputs": [
        {
          "internalType": "uint256",
          "name": "",
          "type": "uint256"
        },
        {
          "internalType": "uint256",
          "name": "",
          "type": "uint256"
        }
      ],
      "name": "quotationList",
      "outputs": [
        {
          "internalType": "uint256",
          "name": "quotationId",
          "type": "uint256"
        },
        {
          "internalType": "uint256",
          "name": "chain",
          "type": "uint256"
        },
        {
          "internalType": "uint256",
          "name": "premium",
          "type": "uint256"
        },
        {
          "internalType": "address",
          "name": "insurer",
          "type": "address"
        },
        {
          "internalType": "uint256",
          "name": "coverage",
          "type": "uint256"
        },
        {
          "internalType": "uint256",
          "name": "coverageUsed",
          "type": "uint256"
        },
        {
          "internalType": "uint256",
          "name": "createdAt",
          "type": "uint256"
        },
        {
          "internalType": "uint256",
          "name": "updatedAt",
          "type": "uint256"
        }
      ],
      "stateMutability": "view",
      "type": "function"
    },
    {
      "inputs": [
        {
          "internalType": "uint256",
          "name": "",
          "type": "uint256"
        }
      ],
      "name": "quotations",
      "outputs": [
        {
          "internalType": "uint256",
          "name": "quotationId",
          "type": "uint256"
        },
        {
          "internalType": "uint256",
          "name": "chain",
          "type": "uint256"
        },
        {
          "internalType": "uint256",
          "name": "premium",
          "type": "uint256"
        },
        {
          "internalType": "address",
          "name": "insurer",
          "type": "address"
        },
        {
          "internalType": "uint256",
          "name": "coverage",
          "type": "uint256"
        },
        {
          "internalType": "uint256",
          "name": "coverageUsed",
          "type": "uint256"
        },
        {
          "internalType": "uint256",
          "name": "createdAt",
          "type": "uint256"
        },
        {
          "internalType": "uint256",
          "name": "updatedAt",
          "type": "uint256"
        }
      ],
      "stateMutability": "view",
      "type": "function"
    },
    {
      "inputs": [
        {
          "internalType": "uint256",
          "name": "policyId",
          "type": "uint256"
        },
        {
          "internalType": "uint256",
          "name": "claimAmount",
          "type": "uint256"
        },
        {
          "internalType": "bytes32",
          "name": "reason",
          "type": "bytes32"
        }
      ],
      "name": "requestClaim",
      "outputs": [
        {
          "internalType": "uint256",
          "name": "",
          "type": "uint256"
        }
      ],
      "stateMutability": "nonpayable",
      "type": "function"
    },
    {
      "inputs": [
        {
          "internalType": "uint256",
          "name": "quotationId",
          "type": "uint256"
        },
        {
          "internalType": "uint256",
          "name": "premium",
          "type": "uint256"
        },
        {
          "internalType": "uint256",
          "name": "coverage",
          "type": "uint256"
        }
      ],
      "name": "updateQuotation",
      "outputs": [],
      "stateMutability": "nonpayable",
      "type": "function"
    },
    {
      "inputs": [
        {
          "internalType": "address",
          "name": "",
          "type": "address"
        },
        {
          "internalType": "uint256",
          "name": "",
          "type": "uint256"
        }
      ],
      "name": "userPolicies",
      "outputs": [
        {
          "internalType": "uint256",
          "name": "",
          "type": "uint256"
        }
      ],
      "stateMutability": "view",
      "type": "function"
    }
  ],
  "bytecode": "0x608060405260016007556001600855600160095534801561001f57600080fd5b50611f668061002f6000396000f3fe608060405234801561001057600080fd5b50600436106101215760003560e01c80635aef2447116100ad578063b158946c11610071578063b158946c14610354578063c62f14f614610367578063d24d3d9f1461037a578063d3e894831461038d578063e98f35db1461040257600080fd5b80635aef24471461028f57806371209bad146102af57806384ac35eb146102c2578063a888c2cd146102d5578063b0c0a0a71461034157600080fd5b80633e2045ea116100f45780633e2045ea146101a357806345d9ecee146101b657806346e30135146101c95780634e896258146101de578063560eb3941461027c57600080fd5b806319ac4614146101265780632b07fce31461014f5780632e6cd30d1461016f5780633d36adc514610182575b600080fd5b6101396101343660046118e4565b610417565b60405161014691906118ff565b60405180910390f35b61016261015d366004611943565b610483565b60405161014691906119fc565b61013961017d3660046118e4565b6105ed565b610195610190366004611abb565b610657565b604051908152602001610146565b6101396101b1366004611943565b610688565b6101956101c4366004611ae5565b6106e8565b6101dc6101d7366004611943565b610a4b565b005b6102396101ec366004611943565b600060208190529081526040902080546001820154600283015460038401546004850154600586015460068701546007909701549596949593946001600160a01b03909316939192909188565b604080519889526020890197909752958701949094526001600160a01b039092166060860152608085015260a084015260c083015260e082015261010001610146565b61019561028a366004611b11565b610ca0565b6102a261029d366004611943565b610cbc565b6040516101469190611b43565b6101956102bd366004611c04565b610e72565b6101dc6102d0366004611943565b611101565b61032e6102e3366004611943565b600460205260009081526040902080546001820154600283015460038401546006850154600786015460089096015494959394929360ff909216926001600160a01b03909116919087565b6040516101469796959493929190611cce565b61023961034f366004611b11565b611295565b610195610362366004611ae5565b611301565b6101dc610375366004611ae5565b61152b565b610195610388366004611abb565b61175f565b6103ed61039b366004611943565b6001602052600090815260409020805460038201546004830154600584015460068501546007860154600887015460099097015495969495939460ff8416946101009094046001600160a01b03169389565b60405161014699989796959493929190611d17565b61040a61177b565b6040516101469190611d6f565b6001600160a01b03811660009081526002602090815260409182902080548351818402810184019094528084526060939283018282801561047757602002820191906000526020600020905b815481526020019060010190808311610463575b50505050509050919050565b61048b611854565b60008281526001602081815260409283902083516101608101855281548152928101805485518185028101850190965280865293949193858401938301828280156104ff57602002820191906000526020600020905b81546001600160a01b031681526001909101906020018083116104e1575b505050505081526020016002820180548060200260200160405190810160405280929190818152602001828054801561055757602002820191906000526020600020905b815481526020019060010190808311610543575b50505091835250506003820154602082015260048201546040820152600582015460609091019060ff166001811115610592576105926119d2565b60018111156105a3576105a36119d2565b8152600582015461010090046001600160a01b0316602082015260068201546040820152600782015460608201526008820154608082015260099091015460a09091015292915050565b6001600160a01b03811660009081526003602090815260409182902080548351818402810184019094528084526060939283018282801561047757602002820191906000526020600020908154815260200190600101908083116104635750505050509050919050565b6002602052816000526040600020818154811061067357600080fd5b90600052602060002001600091509150505481565b60008181526005602090815260409182902080548351818402810184019094528084526060939283018282801561047757602002820191906000526020600020908154815260200190600101908083116104635750505050509050919050565b600083815260016020526040812060050154849061010090046001600160a01b031633146107505760405162461bcd60e51b815260206004820152601060248201526f2737ba103837b634b1bc9037bbb732b960811b60448201526064015b60405180910390fd5b600085815260016020526040812090600582015460ff166001811115610778576107786119d2565b146107bc5760405162461bcd60e51b8152602060048201526014602482015273506f6c696379206973206e6f742061637469766560601b6044820152606401610747565b84816007015410156108205760405162461bcd60e51b815260206004820152602760248201527f436c61696d20616d6f756e7420657863656564732072656d61696e696e6720636044820152666f76657261676560c81b6064820152608401610747565b600980546000918261083183611e1b565b909155506000818152600460205260408120898155600181018990556002810188905560038101805460ff191690556006810180546001600160a01b031916331790554260078201819055600882015591925087905b60028501548110801561089a5750600082115b1561098f5760008060008760020184815481106108b9576108b9611e34565b90600052602060002001548152602001908152602001600020905060008660040154606483600401546108ec9190611e4a565b6108f69190611e61565b905060006064610906838e611e4a565b6109109190611e61565b90508481111561091d5750835b6003830154600487018054600181810183556000928352602080842090920180546001600160a01b0319166001600160a01b0390951694909417909355600589018054938401815582529020018190556109778186611e83565b9450505050808061098790611e1b565b915050610887565b5080156109de5760405162461bcd60e51b815260206004820152601860248201527f436c61696d20646973747269627574696f6e206572726f7200000000000000006044820152606401610747565b600089815260056020908152604080832080546001810182559084529183209091018590555184918b917fc87683691ce0c7c366b280e4dca2f26e648fc1c8deba1f494f554db61f15f0c891610a36918d9190611e96565b60405180910390a35090979650505050505050565b60008181526004602052604081205490805b60008381526001602081905260409091200154811015610ac957600083815260016020819052604090912001805433919083908110610a9e57610a9e611e34565b6000918252602090912001546001600160a01b031603610ac15760019150610ac9565b600101610a5d565b5080610b135760405162461bcd60e51b81526020600482015260196024820152782737ba1030b71030baba3437b934bd32b21034b739bab932b960391b6044820152606401610747565b60008381526004602052604081209060038083015460ff1690811115610b3b57610b3b6119d2565b14610b885760405162461bcd60e51b815260206004820152601c60248201527f436c61696d206e6f7420696e20696e69746961746564207374617465000000006044820152606401610747565b805460009081526001602081905260409091209082015460078201541015610bf25760405162461bcd60e51b815260206004820152601f60248201527f496e73756666696369656e7420636f7665726167652072656d61696e696e67006044820152606401610747565b60038201805460ff19166001908117909155426008840155820154600682018054600090610c21908490611eaa565b90915550506001820154600782018054600090610c3f908490611e83565b90915550506007810154600003610c605760058101805460ff191660011790555b847f2e7de2377c1e6f85a268dbe00519c60d65c9e38570a118be0eb07feb07fc89be6001604051610c919190611ebd565b60405180910390a25050505050565b6005602052816000526040600020818154811061067357600080fd5b610d1460408051610120810182526000808252602082018190529181018290529060608201908152602001606081526020016060815260200160006001600160a01b0316815260200160008152602001600081525090565b60046000838152602001908152602001600020604051806101200160405290816000820154815260200160018201548152602001600282015481526020016003820160009054906101000a900460ff166003811115610d7557610d756119d2565b6003811115610d8657610d866119d2565b815260200160048201805480602002602001604051908101604052809291908181526020018280548015610de357602002820191906000526020600020905b81546001600160a01b03168152600190910190602001808311610dc5575b5050505050815260200160058201805480602002602001604051908101604052809291908181526020018280548015610e3b57602002820191906000526020600020905b815481526020019060010190808311610e27575b505050918352505060068201546001600160a01b031660208201526007820154604082015260089091015460609091015292915050565b600080825111610ec45760405162461bcd60e51b815260206004820152601f60248201527f4174206c65617374206f6e652071756f746174696f6e207265717569726564006044820152606401610747565b6008805460009182610ed583611e1b565b9091555060008181526001602052604081208681556005810180546001600160a81b031916336101000260ff19161790554260088201819055600982015591925080805b8651811015611076576000806000898481518110610f3957610f39611e34565b6020026020010151815260200190815260200160002090508060050154600014610fa05760405162461bcd60e51b815260206004820152601860248201527751756f746174696f6e20616c726561647920696e2075736560401b6044820152606401610747565b60038101546001808701805491820181556000908152602090200180546001600160a01b0319166001600160a01b0390921691909117905587516002860190899084908110610ff157610ff1611e34565b60209081029190910181015182546001810184556000938452919092200155600281015461101f9085611eaa565b93508060040154836110319190611eaa565b600482015460058301556003918201546001600160a01b0316600090815260209283526040812080546001818101835591835293909120909201879055925001610f19565b506003830182905560048301819055600783018190553360008181526002602090815260408083208054600181810183559185529290932090910187905551899187917f59ca7c8f95065fd653aa176a33b0a0fe154d25b6ababba60067fd3b0ec6dba69916110ec9188918891908b0190611ecb565b60405180910390a45091925050505b92915050565b60008181526004602052604081205490805b6000838152600160208190526040909120015481101561117f5760008381526001602081905260409091200180543391908390811061115457611154611e34565b6000918252602090912001546001600160a01b031603611177576001915061117f565b600101611113565b50806111c95760405162461bcd60e51b81526020600482015260196024820152782737ba1030b71030baba3437b934bd32b21034b739bab932b960391b6044820152606401610747565b60008381526004602052604081209060038083015460ff16908111156111f1576111f16119d2565b1461123e5760405162461bcd60e51b815260206004820152601c60248201527f436c61696d206e6f7420696e20696e69746961746564207374617465000000006044820152606401610747565b60038101805460ff1916600290811790915542600883015560405185917f2e7de2377c1e6f85a268dbe00519c60d65c9e38570a118be0eb07feb07fc89be916112879190611ebd565b60405180910390a250505050565b600660205281600052604060002081815481106112b157600080fd5b60009182526020909120600890910201805460018201546002830154600384015460048501546005860154600687015460079097015495985093965091946001600160a01b039091169391929188565b600780546000918291908261131583611e1b565b90915550600081815260208181526040808320848155600281018a8155600482018a815560018084018b8155600385018054336001600160a01b031991821617825542600680890182815560078a01928355908b527f3e5fec24aa4dc4e5aee2e025e51e1392c72a2500577559fae9665c6d52bd6a31805496870181559b8c905288547f80497882cf9008f7f796a89e5514a7b55bd96eab88ecb66aee4fb0a6fd34811c60089097029687015593547f80497882cf9008f7f796a89e5514a7b55bd96eab88ecb66aee4fb0a6fd34811d86015595547f80497882cf9008f7f796a89e5514a7b55bd96eab88ecb66aee4fb0a6fd34811e85015590547f80497882cf9008f7f796a89e5514a7b55bd96eab88ecb66aee4fb0a6fd34811f840180546001600160a01b039092169190921617905591547f80497882cf9008f7f796a89e5514a7b55bd96eab88ecb66aee4fb0a6fd34812082015560058401547f80497882cf9008f7f796a89e5514a7b55bd96eab88ecb66aee4fb0a6fd34812182015590547f80497882cf9008f7f796a89e5514a7b55bd96eab88ecb66aee4fb0a6fd34812282015590547f80497882cf9008f7f796a89e5514a7b55bd96eab88ecb66aee4fb0a6fd3481239091015581518a815292830189905293945084917f8ef948c6ba9666ad6fd43a70513a99c15c0fddad29daf25ac44fdaf066371209910160405180910390a250909150505b9392505050565b60008381526020819052604090208054841461157f5760405162461bcd60e51b8152602060048201526013602482015272145d5bdd185d1a5bdb881b9bdd08199bdd5b99606a1b6044820152606401610747565b60038101546001600160a01b031633146115d15760405162461bcd60e51b81526020600482015260136024820152722737ba1038bab7ba30ba34b7b71037bbb732b960691b6044820152606401610747565b60058101541561161e5760405162461bcd60e51b815260206004820152601860248201527751756f746174696f6e20616c726561647920696e2075736560401b6044820152606401610747565b60028101839055600481018290554260078201556001600090815260066020527f3e5fec24aa4dc4e5aee2e025e51e1392c72a2500577559fae9665c6d52bd6a31905b8154811015611726578582828154811061167d5761167d611e34565b9060005260206000209060080201600001540361171e57828282815481106116a7576116a7611e34565b600091825260209091208254600890920201908155600180830154908201556002808301549082015560038083015490820180546001600160a01b0319166001600160a01b039092169190911790556004808301549082015560058083015490820155600680830154908201556007918201549101555b600101611661565b50604080518581526020810185905286917ff44dc5aa15f18d20228f7876c5971a0e02bab506ad9be4ba5ef1bfdaadf6402a9101610c91565b6003602052816000526040600020818154811061067357600080fd5b60016000908152600660209081527f3e5fec24aa4dc4e5aee2e025e51e1392c72a2500577559fae9665c6d52bd6a3180546040805182850281018501909152818152606094909384015b8282101561184b576000848152602090819020604080516101008101825260088602909201805483526001808201548486015260028201549284019290925260038101546001600160a01b0316606084015260048101546080840152600581015460a0840152600681015460c08401526007015460e083015290835290920191016117c5565b50505050905090565b604051806101600160405280600081526020016060815260200160608152602001600081526020016000815260200160006001811115611896576118966119d2565b815260200160006001600160a01b03168152602001600081526020016000815260200160008152602001600081525090565b80356001600160a01b03811681146118df57600080fd5b919050565b6000602082840312156118f657600080fd5b611524826118c8565b6020808252825182820181905260009190848201906040850190845b818110156119375783518352928401929184019160010161191b565b50909695505050505050565b60006020828403121561195557600080fd5b5035919050565b60008151808452602080850194506020840160005b838110156119965781516001600160a01b031687529582019590820190600101611971565b509495945050505050565b60008151808452602080850194506020840160005b83811015611996578151875295820195908201906001016119b6565b634e487b7160e01b600052602160045260246000fd5b600281106119f8576119f86119d2565b9052565b602081528151602082015260006020830151610160806040850152611a2561018085018361195c565b91506040850151601f19858403016060860152611a4283826119a1565b92505060608501516080850152608085015160a085015260a0850151611a6b60c08601826119e8565b5060c08501516001600160a01b03811660e08601525060e0850151610100858101919091528501516101208086019190915285015161014080860191909152909401519390920192909252919050565b60008060408385031215611ace57600080fd5b611ad7836118c8565b946020939093013593505050565b600080600060608486031215611afa57600080fd5b505081359360208301359350604090920135919050565b60008060408385031215611b2457600080fd5b50508035926020909101359150565b600481106119f8576119f86119d2565b6020815281516020820152602082015160408201526040820151606082015260006060830151611b766080840182611b33565b5060808301516101208060a0850152611b9361014085018361195c565b915060a0850151601f198584030160c0860152611bb083826119a1565b92505060c0850151611bcd60e08601826001600160a01b03169052565b5060e085015161010085810191909152909401519390920192909252919050565b634e487b7160e01b600052604160045260246000fd5b60008060408385031215611c1757600080fd5b8235915060208084013567ffffffffffffffff80821115611c3757600080fd5b818601915086601f830112611c4b57600080fd5b813581811115611c5d57611c5d611bee565b8060051b604051601f19603f83011681018181108582111715611c8257611c82611bee565b604052918252848201925083810185019189831115611ca057600080fd5b938501935b82851015611cbe57843584529385019392850192611ca5565b8096505050505050509250929050565b878152602081018790526040810186905260e08101611cf06060830187611b33565b6001600160a01b0394909416608082015260a081019290925260c090910152949350505050565b89815260208101899052604081018890526101208101611d3a60608301896119e8565b6001600160a01b0396909616608082015260a081019490945260c084019290925260e083015261010090910152949350505050565b602080825282518282018190526000919060409081850190868401855b82811015611df857815180518552868101518786015285810151868601526060808201516001600160a01b0316908601526080808201519086015260a0808201519086015260c0808201519086015260e090810151908501526101009093019290850190600101611d8c565b5091979650505050505050565b634e487b7160e01b600052601160045260246000fd5b600060018201611e2d57611e2d611e05565b5060010190565b634e487b7160e01b600052603260045260246000fd5b80820281158282048414176110fb576110fb611e05565b600082611e7e57634e487b7160e01b600052601260045260246000fd5b500490565b818103818111156110fb576110fb611e05565b828152604081016115246020830184611b33565b808201808211156110fb576110fb611e05565b602081016110fb8284611b33565b600060608201858352602085602085015260606040850152818554808452608086019150866000526020600020935060005b81811015611f225784546001600160a01b031683526001948501949284019201611efd565b50909897505050505050505056fea264697066735822122037ac15493e84e8c46de026b43b6485f0694a2e998544f054ea1906c8e6c0ef4164736f6c63430008180033",
  "linkReferences": {},
  "deployedLinkReferences": {}
}