{
  "_format": "hh-sol-artifact-1",
  "contractName": "VehicleManagement",
  "sourceName": "contracts/VehicleManagement.sol",
  "abi": [
    {
      "inputs": [],
      "stateMutability": "nonpayable",
      "type": "constructor"
    },
    {
      "inputs": [
        {
          "internalType": "address",
          "name": "owner",
          "type": "address"
        }
      ],
      "name": "OwnableInvalidOwner",
      "type": "error"
    },
    {
      "inputs": [
        {
          "internalType": "address",
          "name": "account",
          "type": "address"
        }
      ],
      "name": "OwnableUnauthorizedAccount",
      "type": "error"
    },
    {
      "anonymous": false,
      "inputs": [
        {
          "indexed": true,
          "internalType": "address",
          "name": "previousOwner",
          "type": "address"
        },
        {
          "indexed": true,
          "internalType": "address",
          "name": "newOwner",
          "type": "address"
        }
      ],
      "name": "OwnershipTransferred",
      "type": "event"
    },
    {
      "anonymous": false,
      "inputs": [
        {
          "indexed": true,
          "internalType": "uint256",
          "name": "vehicleId",
          "type": "uint256"
        },
        {
          "indexed": false,
          "internalType": "address",
          "name": "owner",
          "type": "address"
        },
        {
          "indexed": false,
          "internalType": "bytes32",
          "name": "model",
          "type": "bytes32"
        }
      ],
      "name": "VehicleRegistered",
      "type": "event"
    },
    {
      "inputs": [],
      "name": "getVehicleByAccount",
      "outputs": [
        {
          "components": [
            {
              "internalType": "uint256",
              "name": "vehicleId",
              "type": "uint256"
            },
            {
              "internalType": "address",
              "name": "owner",
              "type": "address"
            },
            {
              "internalType": "bytes32",
              "name": "model",
              "type": "bytes32"
            },
            {
              "internalType": "uint256",
              "name": "purchaseDate",
              "type": "uint256"
            },
            {
              "internalType": "bytes32",
              "name": "vin",
              "type": "bytes32"
            },
            {
              "internalType": "bytes32",
              "name": "color",
              "type": "bytes32"
            },
            {
              "internalType": "bytes32",
              "name": "plateNumber",
              "type": "bytes32"
            },
            {
              "internalType": "uint256",
              "name": "createdAt",
              "type": "uint256"
            },
            {
              "internalType": "uint256",
              "name": "updatedAt",
              "type": "uint256"
            }
          ],
          "internalType": "struct VehicleManagement.Vehicle[]",
          "name": "",
          "type": "tuple[]"
        }
      ],
      "stateMutability": "view",
      "type": "function"
    },
    {
      "inputs": [
        {
          "internalType": "uint256",
          "name": "vehicleId",
          "type": "uint256"
        }
      ],
      "name": "getVehicleByVehicleId",
      "outputs": [
        {
          "components": [
            {
              "internalType": "uint256",
              "name": "vehicleId",
              "type": "uint256"
            },
            {
              "internalType": "address",
              "name": "owner",
              "type": "address"
            },
            {
              "internalType": "bytes32",
              "name": "model",
              "type": "bytes32"
            },
            {
              "internalType": "uint256",
              "name": "purchaseDate",
              "type": "uint256"
            },
            {
              "internalType": "bytes32",
              "name": "vin",
              "type": "bytes32"
            },
            {
              "internalType": "bytes32",
              "name": "color",
              "type": "bytes32"
            },
            {
              "internalType": "bytes32",
              "name": "plateNumber",
              "type": "bytes32"
            },
            {
              "internalType": "uint256",
              "name": "createdAt",
              "type": "uint256"
            },
            {
              "internalType": "uint256",
              "name": "updatedAt",
              "type": "uint256"
            }
          ],
          "internalType": "struct VehicleManagement.Vehicle",
          "name": "",
          "type": "tuple"
        }
      ],
      "stateMutability": "view",
      "type": "function"
    },
    {
      "inputs": [],
      "name": "owner",
      "outputs": [
        {
          "internalType": "address",
          "name": "",
          "type": "address"
        }
      ],
      "stateMutability": "view",
      "type": "function"
    },
    {
      "inputs": [
        {
          "internalType": "bytes",
          "name": "data",
          "type": "bytes"
        }
      ],
      "name": "registerVehicle",
      "outputs": [],
      "stateMutability": "nonpayable",
      "type": "function"
    },
    {
      "inputs": [],
      "name": "renounceOwnership",
      "outputs": [],
      "stateMutability": "nonpayable",
      "type": "function"
    },
    {
      "inputs": [
        {
          "internalType": "address",
          "name": "newOwner",
          "type": "address"
        }
      ],
      "name": "transferOwnership",
      "outputs": [],
      "stateMutability": "nonpayable",
      "type": "function"
    },
    {
      "inputs": [
        {
          "internalType": "address",
          "name": "",
          "type": "address"
        },
        {
          "internalType": "uint256",
          "name": "",
          "type": "uint256"
        }
      ],
      "name": "userVehicleMap",
      "outputs": [
        {
          "internalType": "uint256",
          "name": "vehicleId",
          "type": "uint256"
        },
        {
          "internalType": "address",
          "name": "owner",
          "type": "address"
        },
        {
          "internalType": "bytes32",
          "name": "model",
          "type": "bytes32"
        },
        {
          "internalType": "uint256",
          "name": "purchaseDate",
          "type": "uint256"
        },
        {
          "internalType": "bytes32",
          "name": "vin",
          "type": "bytes32"
        },
        {
          "internalType": "bytes32",
          "name": "color",
          "type": "bytes32"
        },
        {
          "internalType": "bytes32",
          "name": "plateNumber",
          "type": "bytes32"
        },
        {
          "internalType": "uint256",
          "name": "createdAt",
          "type": "uint256"
        },
        {
          "internalType": "uint256",
          "name": "updatedAt",
          "type": "uint256"
        }
      ],
      "stateMutability": "view",
      "type": "function"
    },
    {
      "inputs": [
        {
          "internalType": "uint256",
          "name": "",
          "type": "uint256"
        }
      ],
      "name": "vehicle",
      "outputs": [
        {
          "internalType": "uint256",
          "name": "vehicleId",
          "type": "uint256"
        },
        {
          "internalType": "address",
          "name": "owner",
          "type": "address"
        },
        {
          "internalType": "bytes32",
          "name": "model",
          "type": "bytes32"
        },
        {
          "internalType": "uint256",
          "name": "purchaseDate",
          "type": "uint256"
        },
        {
          "internalType": "bytes32",
          "name": "vin",
          "type": "bytes32"
        },
        {
          "internalType": "bytes32",
          "name": "color",
          "type": "bytes32"
        },
        {
          "internalType": "bytes32",
          "name": "plateNumber",
          "type": "bytes32"
        },
        {
          "internalType": "uint256",
          "name": "createdAt",
          "type": "uint256"
        },
        {
          "internalType": "uint256",
          "name": "updatedAt",
          "type": "uint256"
        }
      ],
      "stateMutability": "view",
      "type": "function"
    },
    {
      "inputs": [
        {
          "internalType": "uint256",
          "name": "",
          "type": "uint256"
        }
      ],
      "name": "vehicles",
      "outputs": [
        {
          "internalType": "uint256",
          "name": "vehicleId",
          "type": "uint256"
        },
        {
          "internalType": "address",
          "name": "owner",
          "type": "address"
        },
        {
          "internalType": "bytes32",
          "name": "model",
          "type": "bytes32"
        },
        {
          "internalType": "uint256",
          "name": "purchaseDate",
          "type": "uint256"
        },
        {
          "internalType": "bytes32",
          "name": "vin",
          "type": "bytes32"
        },
        {
          "internalType": "bytes32",
          "name": "color",
          "type": "bytes32"
        },
        {
          "internalType": "bytes32",
          "name": "plateNumber",
          "type": "bytes32"
        },
        {
          "internalType": "uint256",
          "name": "createdAt",
          "type": "uint256"
        },
        {
          "internalType": "uint256",
          "name": "updatedAt",
          "type": "uint256"
        }
      ],
      "stateMutability": "view",
      "type": "function"
    }
  ],
  "bytecode": "0x608060405234801561001057600080fd5b50338061003757604051631e4fbdf760e01b81526000600482015260240160405180910390fd5b61004081610046565b50610096565b600080546001600160a01b038381166001600160a01b0319831681178455604051919092169283917f8be0079c531659141344cd1fd0a4f28419497f9722a3daafe3b4186f6b6457e09190a35050565b610b9e806100a56000396000f3fe608060405234801561001057600080fd5b50600436106100935760003560e01c8063a39ab40e11610066578063a39ab40e14610134578063a718538514610196578063b8ba95fa146101ab578063e3395a50146101be578063f2fde38b146101de57600080fd5b806314df143214610098578063256fe235146100fc578063715018a6146101115780638da5cb5b14610119575b600080fd5b6100ab6100a6366004610901565b6101f1565b60408051998a526001600160a01b0390981660208a0152968801959095526060870193909352608086019190915260a085015260c084015260e0830152610100820152610120015b60405180910390f35b61010f61010a366004610943565b610263565b005b61010f6104fe565b6000546040516001600160a01b0390911681526020016100f3565b6100ab6101423660046109f4565b600260208190526000918252604090912080546001820154928201546003830154600484015460058501546006860154600787015460089097015495976001600160a01b0316969495939492939192909189565b61019e610512565b6040516100f39190610a6c565b6100ab6101b93660046109f4565b6105db565b6101d16101cc3660046109f4565b610640565b6040516100f39190610abb565b61010f6101ec366004610ad0565b6106c7565b6003602052816000526040600020818154811061020d57600080fd5b60009182526020909120600990910201805460018201546002830154600384015460048501546005860154600687015460078801546008909801549699506001600160a01b039095169750929591949093919089565b6000806000806000806000806000898060200190518101906102859190610af4565b98509850985098509850985098509850985061029f610787565b898160000181815250508881602001906001600160a01b031690816001600160a01b031681525050878160400181815250508681606001818152505085816080018181525050848160a0018181525050838160c0018181525050828160e0018181525050818161010001818152505080600260008c81526020019081526020016000206000820151816000015560208201518160010160006101000a8154816001600160a01b0302191690836001600160a01b0316021790555060408201518160020155606082015181600301556080820151816004015560a0820151816005015560c0820151816006015560e0820151816007015561010082015181600801559050506000600360008b6001600160a01b03166001600160a01b031681526020019081526020016000209050808290806001815401808255809150506001900390600052602060002090600902016000909190919091506000820151816000015560208201518160010160006101000a8154816001600160a01b0302191690836001600160a01b0316021790555060408201518160020155606082015181600301556080820151816004015560a0820151816005015560c0820151816006015560e082015181600701556101008201518160080155505080600360008c6001600160a01b03166001600160a01b031681526020019081526020016000209080546104ab9291906107d3565b50604080516001600160a01b038c168152602081018b90528c917f92c1a1885217849327738d29f8df4013ed5e190e86dd6192a2260f60fe578d77910160405180910390a2505050505050505050505050565b61050661070a565b6105106000610737565b565b336000908152600360209081526040808320805482518185028101850190935280835260609492939192909184015b828210156105d2576000848152602090819020604080516101208101825260098602909201805483526001808201546001600160a01b0316848601526002820154928401929092526003810154606084015260048101546080840152600581015460a0840152600681015460c0840152600781015460e0840152600801546101008301529083529092019101610541565b50505050905090565b600181815481106105eb57600080fd5b60009182526020909120600990910201805460018201546002830154600384015460048501546005860154600687015460078801546008909801549698506001600160a01b0390951696939592949193909289565b610648610787565b506000908152600260208181526040928390208351610120810185528154815260018201546001600160a01b03169281019290925291820154928101929092526003810154606083015260048101546080830152600581015460a0830152600681015460c0830152600781015460e08301526008015461010082015290565b6106cf61070a565b6001600160a01b0381166106fe57604051631e4fbdf760e01b8152600060048201526024015b60405180910390fd5b61070781610737565b50565b6000546001600160a01b031633146105105760405163118cdaa760e01b81523360048201526024016106f5565b600080546001600160a01b038381166001600160a01b0319831681178455604051919092169283917f8be0079c531659141344cd1fd0a4f28419497f9722a3daafe3b4186f6b6457e09190a35050565b6040805161012081018252600080825260208201819052918101829052606081018290526080810182905260a0810182905260c0810182905260e0810182905261010081019190915290565b8280548282559060005260206000209060090281019282156108855760005260206000209160090282015b82811115610885578254825560018084015490830180546001600160a01b0319166001600160a01b0390921691909117905560028084015490830155600380840154908301556004808401549083015560058084015490830155600680840154908301556007808401549083015560088084015490830155600992830192909101906107fe565b50610891929150610895565b5090565b5b808211156108915760008082556001820180546001600160a01b03191690556002820181905560038201819055600482018190556005820181905560068201819055600782018190556008820155600901610896565b6001600160a01b038116811461070757600080fd5b6000806040838503121561091457600080fd5b823561091f816108ec565b946020939093013593505050565b634e487b7160e01b600052604160045260246000fd5b60006020828403121561095557600080fd5b813567ffffffffffffffff8082111561096d57600080fd5b818401915084601f83011261098157600080fd5b8135818111156109935761099361092d565b604051601f8201601f19908116603f011681019083821181831017156109bb576109bb61092d565b816040528281528760208487010111156109d457600080fd5b826020860160208301376000928101602001929092525095945050505050565b600060208284031215610a0657600080fd5b5035919050565b805182526020808201516001600160a01b03169083015260408082015190830152606080820151908301526080808201519083015260a0808201519083015260c0808201519083015260e0808201519083015261010090810151910152565b6020808252825182820181905260009190848201906040850190845b81811015610aaf57610a9b838551610a0d565b928401926101209290920191600101610a88565b50909695505050505050565b6101208101610aca8284610a0d565b92915050565b600060208284031215610ae257600080fd5b8135610aed816108ec565b9392505050565b60008060008060008060008060006101208a8c031215610b1357600080fd5b8951985060208a0151610b25816108ec565b8098505060408a0151965060608a0151955060808a0151945060a08a0151935060c08a0151925060e08a015191506101008a01519050929598509295985092959856fea26469706673582212201d196014a494f1ce787b8481382e04a8e36f9656e219473b6802df85ee1c995c64736f6c63430008180033",
  "linkReferences": {},
  "deployedLinkReferences": {}
}