{
  "_format": "hh-sol-artifact-1",
  "contractName": "PolicyManagement",
  "sourceName": "contracts/PolicyManagement.sol",
  "abi": [
    {
      "inputs": [],
      "stateMutability": "nonpayable",
      "type": "constructor"
    },
    {
      "inputs": [
        {
          "internalType": "address",
          "name": "owner",
          "type": "address"
        }
      ],
      "name": "OwnableInvalidOwner",
      "type": "error"
    },
    {
      "inputs": [
        {
          "internalType": "address",
          "name": "account",
          "type": "address"
        }
      ],
      "name": "OwnableUnauthorizedAccount",
      "type": "error"
    },
    {
      "anonymous": false,
      "inputs": [
        {
          "indexed": true,
          "internalType": "uint256",
          "name": "claimId",
          "type": "uint256"
        },
        {
          "indexed": false,
          "internalType": "uint256",
          "name": "claimAmount",
          "type": "uint256"
        },
        {
          "indexed": false,
          "internalType": "uint256",
          "name": "coverageRemaining",
          "type": "uint256"
        },
        {
          "indexed": false,
          "internalType": "uint256",
          "name": "coverageUsed",
          "type": "uint256"
        },
        {
          "indexed": true,
          "internalType": "address",
          "name": "approver",
          "type": "address"
        },
        {
          "indexed": false,
          "internalType": "enum PolicyManagement.ClaimStatus",
          "name": "status",
          "type": "uint8"
        }
      ],
      "name": "ClaimApproved",
      "type": "event"
    },
    {
      "anonymous": false,
      "inputs": [
        {
          "indexed": true,
          "internalType": "uint256",
          "name": "claimId",
          "type": "uint256"
        },
        {
          "indexed": false,
          "internalType": "uint256",
          "name": "claimAmount",
          "type": "uint256"
        },
        {
          "indexed": false,
          "internalType": "uint256",
          "name": "coverageRemaining",
          "type": "uint256"
        },
        {
          "indexed": false,
          "internalType": "uint256",
          "name": "coverageUsed",
          "type": "uint256"
        },
        {
          "indexed": true,
          "internalType": "address",
          "name": "approver",
          "type": "address"
        },
        {
          "indexed": false,
          "internalType": "enum PolicyManagement.ClaimStatus",
          "name": "status",
          "type": "uint8"
        }
      ],
      "name": "ClaimCompleted",
      "type": "event"
    },
    {
      "anonymous": false,
      "inputs": [
        {
          "indexed": true,
          "internalType": "uint256",
          "name": "claimId",
          "type": "uint256"
        },
        {
          "indexed": false,
          "internalType": "uint256",
          "name": "claimAmount",
          "type": "uint256"
        },
        {
          "indexed": false,
          "internalType": "uint256",
          "name": "coverageRemaining",
          "type": "uint256"
        },
        {
          "indexed": false,
          "internalType": "uint256",
          "name": "coverageUsed",
          "type": "uint256"
        },
        {
          "indexed": true,
          "internalType": "address",
          "name": "approver",
          "type": "address"
        },
        {
          "indexed": false,
          "internalType": "enum PolicyManagement.ClaimStatus",
          "name": "status",
          "type": "uint8"
        }
      ],
      "name": "ClaimDenied",
      "type": "event"
    },
    {
      "anonymous": false,
      "inputs": [
        {
          "indexed": false,
          "internalType": "uint256",
          "name": "policyId",
          "type": "uint256"
        },
        {
          "indexed": false,
          "internalType": "uint256",
          "name": "claimId",
          "type": "uint256"
        },
        {
          "indexed": false,
          "internalType": "uint256",
          "name": "claimAmount",
          "type": "uint256"
        },
        {
          "indexed": false,
          "internalType": "enum PolicyManagement.ClaimStatus",
          "name": "status",
          "type": "uint8"
        }
      ],
      "name": "ClaimRequested",
      "type": "event"
    },
    {
      "anonymous": false,
      "inputs": [
        {
          "indexed": true,
          "internalType": "address",
          "name": "previousOwner",
          "type": "address"
        },
        {
          "indexed": true,
          "internalType": "address",
          "name": "newOwner",
          "type": "address"
        }
      ],
      "name": "OwnershipTransferred",
      "type": "event"
    },
    {
      "anonymous": false,
      "inputs": [
        {
          "indexed": true,
          "internalType": "uint256",
          "name": "policyId",
          "type": "uint256"
        },
        {
          "indexed": true,
          "internalType": "uint256",
          "name": "vehicleId",
          "type": "uint256"
        },
        {
          "indexed": false,
          "internalType": "uint256",
          "name": "premium",
          "type": "uint256"
        },
        {
          "indexed": false,
          "internalType": "uint256",
          "name": "coverage",
          "type": "uint256"
        },
        {
          "indexed": false,
          "internalType": "address",
          "name": "user",
          "type": "address"
        },
        {
          "indexed": false,
          "internalType": "address[]",
          "name": "insurers",
          "type": "address[]"
        },
        {
          "indexed": false,
          "internalType": "uint256",
          "name": "createdAt",
          "type": "uint256"
        },
        {
          "indexed": false,
          "internalType": "uint256",
          "name": "updatedAt",
          "type": "uint256"
        }
      ],
      "name": "PolicyCreated",
      "type": "event"
    },
    {
      "anonymous": false,
      "inputs": [
        {
          "indexed": false,
          "internalType": "uint256",
          "name": "quotationId",
          "type": "uint256"
        },
        {
          "indexed": false,
          "internalType": "uint256",
          "name": "premium",
          "type": "uint256"
        },
        {
          "indexed": false,
          "internalType": "uint256",
          "name": "coverage",
          "type": "uint256"
        },
        {
          "indexed": false,
          "internalType": "uint256",
          "name": "createdAt",
          "type": "uint256"
        },
        {
          "indexed": false,
          "internalType": "uint256",
          "name": "updatedAt",
          "type": "uint256"
        }
      ],
      "name": "QuotationAdded",
      "type": "event"
    },
    {
      "anonymous": false,
      "inputs": [
        {
          "indexed": false,
          "internalType": "uint256",
          "name": "quotationId",
          "type": "uint256"
        },
        {
          "indexed": false,
          "internalType": "uint256",
          "name": "premium",
          "type": "uint256"
        },
        {
          "indexed": false,
          "internalType": "uint256",
          "name": "coverage",
          "type": "uint256"
        },
        {
          "indexed": false,
          "internalType": "uint256",
          "name": "createdAt",
          "type": "uint256"
        },
        {
          "indexed": false,
          "internalType": "uint256",
          "name": "updatedAt",
          "type": "uint256"
        }
      ],
      "name": "QuotationUpdated",
      "type": "event"
    },
    {
      "inputs": [
        {
          "internalType": "uint256",
          "name": "quotationId",
          "type": "uint256"
        },
        {
          "internalType": "uint256",
          "name": "premium",
          "type": "uint256"
        },
        {
          "internalType": "uint256",
          "name": "coverage",
          "type": "uint256"
        },
        {
          "internalType": "uint256",
          "name": "createdAt",
          "type": "uint256"
        },
        {
          "internalType": "uint256",
          "name": "updatedAt",
          "type": "uint256"
        }
      ],
      "name": "addQuotation",
      "outputs": [
        {
          "internalType": "bool",
          "name": "success",
          "type": "bool"
        }
      ],
      "stateMutability": "nonpayable",
      "type": "function"
    },
    {
      "inputs": [
        {
          "internalType": "uint256",
          "name": "claimId",
          "type": "uint256"
        },
        {
          "internalType": "uint256",
          "name": "updatedAt",
          "type": "uint256"
        }
      ],
      "name": "approveClaim",
      "outputs": [
        {
          "internalType": "bool",
          "name": "success",
          "type": "bool"
        }
      ],
      "stateMutability": "nonpayable",
      "type": "function"
    },
    {
      "inputs": [
        {
          "internalType": "uint256",
          "name": "",
          "type": "uint256"
        }
      ],
      "name": "claim",
      "outputs": [
        {
          "internalType": "uint256",
          "name": "policyId",
          "type": "uint256"
        },
        {
          "internalType": "uint256",
          "name": "claimAmount",
          "type": "uint256"
        },
        {
          "internalType": "bytes32",
          "name": "reason",
          "type": "bytes32"
        },
        {
          "internalType": "enum PolicyManagement.ClaimStatus",
          "name": "status",
          "type": "uint8"
        },
        {
          "internalType": "address",
          "name": "createdBy",
          "type": "address"
        },
        {
          "internalType": "uint256",
          "name": "createdAt",
          "type": "uint256"
        },
        {
          "internalType": "uint256",
          "name": "updatedAt",
          "type": "uint256"
        }
      ],
      "stateMutability": "view",
      "type": "function"
    },
    {
      "inputs": [
        {
          "internalType": "uint256",
          "name": "",
          "type": "uint256"
        },
        {
          "internalType": "uint256",
          "name": "",
          "type": "uint256"
        }
      ],
      "name": "claims",
      "outputs": [
        {
          "internalType": "uint256",
          "name": "policyId",
          "type": "uint256"
        },
        {
          "internalType": "uint256",
          "name": "claimAmount",
          "type": "uint256"
        },
        {
          "internalType": "bytes32",
          "name": "reason",
          "type": "bytes32"
        },
        {
          "internalType": "enum PolicyManagement.ClaimStatus",
          "name": "status",
          "type": "uint8"
        },
        {
          "internalType": "address",
          "name": "createdBy",
          "type": "address"
        },
        {
          "internalType": "uint256",
          "name": "createdAt",
          "type": "uint256"
        },
        {
          "internalType": "uint256",
          "name": "updatedAt",
          "type": "uint256"
        }
      ],
      "stateMutability": "view",
      "type": "function"
    },
    {
      "inputs": [
        {
          "internalType": "bytes",
          "name": "data",
          "type": "bytes"
        }
      ],
      "name": "createPolicy",
      "outputs": [
        {
          "internalType": "uint256",
          "name": "",
          "type": "uint256"
        }
      ],
      "stateMutability": "nonpayable",
      "type": "function"
    },
    {
      "inputs": [
        {
          "internalType": "uint256",
          "name": "claimId",
          "type": "uint256"
        },
        {
          "internalType": "uint256",
          "name": "updatedAt",
          "type": "uint256"
        }
      ],
      "name": "denyClaim",
      "outputs": [
        {
          "internalType": "bool",
          "name": "success",
          "type": "bool"
        }
      ],
      "stateMutability": "view",
      "type": "function"
    },
    {
      "inputs": [
        {
          "internalType": "uint256",
          "name": "policyId",
          "type": "uint256"
        }
      ],
      "name": "getAllClaimsByPolicyId",
      "outputs": [
        {
          "components": [
            {
              "internalType": "uint256",
              "name": "policyId",
              "type": "uint256"
            },
            {
              "internalType": "uint256",
              "name": "claimAmount",
              "type": "uint256"
            },
            {
              "internalType": "bytes32",
              "name": "reason",
              "type": "bytes32"
            },
            {
              "internalType": "enum PolicyManagement.ClaimStatus",
              "name": "status",
              "type": "uint8"
            },
            {
              "internalType": "address[]",
              "name": "insurers",
              "type": "address[]"
            },
            {
              "internalType": "address",
              "name": "createdBy",
              "type": "address"
            },
            {
              "internalType": "uint256",
              "name": "createdAt",
              "type": "uint256"
            },
            {
              "internalType": "uint256",
              "name": "updatedAt",
              "type": "uint256"
            }
          ],
          "internalType": "struct PolicyManagement.Claim[]",
          "name": "",
          "type": "tuple[]"
        }
      ],
      "stateMutability": "view",
      "type": "function"
    },
    {
      "inputs": [],
      "name": "getAllPoliciesByAccount",
      "outputs": [
        {
          "components": [
            {
              "internalType": "uint256",
              "name": "vehicleId",
              "type": "uint256"
            },
            {
              "internalType": "address[]",
              "name": "insurers",
              "type": "address[]"
            },
            {
              "internalType": "uint256",
              "name": "premium",
              "type": "uint256"
            },
            {
              "internalType": "uint256",
              "name": "coverage",
              "type": "uint256"
            },
            {
              "internalType": "enum PolicyManagement.Status",
              "name": "status",
              "type": "uint8"
            },
            {
              "internalType": "address",
              "name": "user",
              "type": "address"
            },
            {
              "internalType": "uint256",
              "name": "coverageUsed",
              "type": "uint256"
            },
            {
              "internalType": "uint256",
              "name": "coverageRemaining",
              "type": "uint256"
            },
            {
              "internalType": "uint256",
              "name": "createdAt",
              "type": "uint256"
            },
            {
              "internalType": "uint256",
              "name": "updatedAt",
              "type": "uint256"
            }
          ],
          "internalType": "struct PolicyManagement.Policy[]",
          "name": "",
          "type": "tuple[]"
        }
      ],
      "stateMutability": "view",
      "type": "function"
    },
    {
      "inputs": [
        {
          "internalType": "uint256",
          "name": "claimId",
          "type": "uint256"
        }
      ],
      "name": "getClaimById",
      "outputs": [
        {
          "components": [
            {
              "internalType": "uint256",
              "name": "policyId",
              "type": "uint256"
            },
            {
              "internalType": "uint256",
              "name": "claimAmount",
              "type": "uint256"
            },
            {
              "internalType": "bytes32",
              "name": "reason",
              "type": "bytes32"
            },
            {
              "internalType": "enum PolicyManagement.ClaimStatus",
              "name": "status",
              "type": "uint8"
            },
            {
              "internalType": "address[]",
              "name": "insurers",
              "type": "address[]"
            },
            {
              "internalType": "address",
              "name": "createdBy",
              "type": "address"
            },
            {
              "internalType": "uint256",
              "name": "createdAt",
              "type": "uint256"
            },
            {
              "internalType": "uint256",
              "name": "updatedAt",
              "type": "uint256"
            }
          ],
          "internalType": "struct PolicyManagement.Claim",
          "name": "",
          "type": "tuple"
        }
      ],
      "stateMutability": "view",
      "type": "function"
    },
    {
      "inputs": [
        {
          "internalType": "uint256",
          "name": "policyId",
          "type": "uint256"
        }
      ],
      "name": "getPolicyById",
      "outputs": [
        {
          "components": [
            {
              "internalType": "uint256",
              "name": "vehicleId",
              "type": "uint256"
            },
            {
              "internalType": "address[]",
              "name": "insurers",
              "type": "address[]"
            },
            {
              "internalType": "uint256",
              "name": "premium",
              "type": "uint256"
            },
            {
              "internalType": "uint256",
              "name": "coverage",
              "type": "uint256"
            },
            {
              "internalType": "enum PolicyManagement.Status",
              "name": "status",
              "type": "uint8"
            },
            {
              "internalType": "address",
              "name": "user",
              "type": "address"
            },
            {
              "internalType": "uint256",
              "name": "coverageUsed",
              "type": "uint256"
            },
            {
              "internalType": "uint256",
              "name": "coverageRemaining",
              "type": "uint256"
            },
            {
              "internalType": "uint256",
              "name": "createdAt",
              "type": "uint256"
            },
            {
              "internalType": "uint256",
              "name": "updatedAt",
              "type": "uint256"
            }
          ],
          "internalType": "struct PolicyManagement.Policy",
          "name": "_policy",
          "type": "tuple"
        }
      ],
      "stateMutability": "view",
      "type": "function"
    },
    {
      "inputs": [
        {
          "internalType": "uint256",
          "name": "requestedCoverage",
          "type": "uint256"
        }
      ],
      "name": "getQuotations",
      "outputs": [
        {
          "components": [
            {
              "internalType": "uint256",
              "name": "quotationId",
              "type": "uint256"
            },
            {
              "internalType": "uint256",
              "name": "premium",
              "type": "uint256"
            },
            {
              "internalType": "uint256",
              "name": "coverage",
              "type": "uint256"
            },
            {
              "internalType": "uint256",
              "name": "createdAt",
              "type": "uint256"
            },
            {
              "internalType": "uint256",
              "name": "updatedAt",
              "type": "uint256"
            }
          ],
          "internalType": "struct PolicyManagement.Quotation[]",
          "name": "",
          "type": "tuple[]"
        }
      ],
      "stateMutability": "view",
      "type": "function"
    },
    {
      "inputs": [
        {
          "internalType": "address",
          "name": "",
          "type": "address"
        }
      ],
      "name": "insurerQuotation",
      "outputs": [
        {
          "internalType": "uint256",
          "name": "quotationId",
          "type": "uint256"
        },
        {
          "internalType": "uint256",
          "name": "premium",
          "type": "uint256"
        },
        {
          "internalType": "uint256",
          "name": "coverage",
          "type": "uint256"
        },
        {
          "internalType": "uint256",
          "name": "createdAt",
          "type": "uint256"
        },
        {
          "internalType": "uint256",
          "name": "updatedAt",
          "type": "uint256"
        }
      ],
      "stateMutability": "view",
      "type": "function"
    },
    {
      "inputs": [],
      "name": "owner",
      "outputs": [
        {
          "internalType": "address",
          "name": "",
          "type": "address"
        }
      ],
      "stateMutability": "view",
      "type": "function"
    },
    {
      "inputs": [
        {
          "internalType": "address",
          "name": "",
          "type": "address"
        },
        {
          "internalType": "uint256",
          "name": "",
          "type": "uint256"
        }
      ],
      "name": "policies",
      "outputs": [
        {
          "internalType": "uint256",
          "name": "vehicleId",
          "type": "uint256"
        },
        {
          "internalType": "uint256",
          "name": "premium",
          "type": "uint256"
        },
        {
          "internalType": "uint256",
          "name": "coverage",
          "type": "uint256"
        },
        {
          "internalType": "enum PolicyManagement.Status",
          "name": "status",
          "type": "uint8"
        },
        {
          "internalType": "address",
          "name": "user",
          "type": "address"
        },
        {
          "internalType": "uint256",
          "name": "coverageUsed",
          "type": "uint256"
        },
        {
          "internalType": "uint256",
          "name": "coverageRemaining",
          "type": "uint256"
        },
        {
          "internalType": "uint256",
          "name": "createdAt",
          "type": "uint256"
        },
        {
          "internalType": "uint256",
          "name": "updatedAt",
          "type": "uint256"
        }
      ],
      "stateMutability": "view",
      "type": "function"
    },
    {
      "inputs": [
        {
          "internalType": "uint256",
          "name": "",
          "type": "uint256"
        }
      ],
      "name": "policy",
      "outputs": [
        {
          "internalType": "uint256",
          "name": "vehicleId",
          "type": "uint256"
        },
        {
          "internalType": "uint256",
          "name": "premium",
          "type": "uint256"
        },
        {
          "internalType": "uint256",
          "name": "coverage",
          "type": "uint256"
        },
        {
          "internalType": "enum PolicyManagement.Status",
          "name": "status",
          "type": "uint8"
        },
        {
          "internalType": "address",
          "name": "user",
          "type": "address"
        },
        {
          "internalType": "uint256",
          "name": "coverageUsed",
          "type": "uint256"
        },
        {
          "internalType": "uint256",
          "name": "coverageRemaining",
          "type": "uint256"
        },
        {
          "internalType": "uint256",
          "name": "createdAt",
          "type": "uint256"
        },
        {
          "internalType": "uint256",
          "name": "updatedAt",
          "type": "uint256"
        }
      ],
      "stateMutability": "view",
      "type": "function"
    },
    {
      "inputs": [
        {
          "internalType": "uint256",
          "name": "",
          "type": "uint256"
        }
      ],
      "name": "quotation",
      "outputs": [
        {
          "internalType": "uint256",
          "name": "quotationId",
          "type": "uint256"
        },
        {
          "internalType": "uint256",
          "name": "premium",
          "type": "uint256"
        },
        {
          "internalType": "uint256",
          "name": "coverage",
          "type": "uint256"
        },
        {
          "internalType": "uint256",
          "name": "createdAt",
          "type": "uint256"
        },
        {
          "internalType": "uint256",
          "name": "updatedAt",
          "type": "uint256"
        }
      ],
      "stateMutability": "view",
      "type": "function"
    },
    {
      "inputs": [
        {
          "internalType": "uint256",
          "name": "",
          "type": "uint256"
        }
      ],
      "name": "quotationIds",
      "outputs": [
        {
          "internalType": "uint256",
          "name": "",
          "type": "uint256"
        }
      ],
      "stateMutability": "view",
      "type": "function"
    },
    {
      "inputs": [
        {
          "internalType": "uint256",
          "name": "",
          "type": "uint256"
        },
        {
          "internalType": "uint256",
          "name": "",
          "type": "uint256"
        }
      ],
      "name": "quotations",
      "outputs": [
        {
          "internalType": "uint256",
          "name": "quotationId",
          "type": "uint256"
        },
        {
          "internalType": "uint256",
          "name": "premium",
          "type": "uint256"
        },
        {
          "internalType": "uint256",
          "name": "coverage",
          "type": "uint256"
        },
        {
          "internalType": "uint256",
          "name": "createdAt",
          "type": "uint256"
        },
        {
          "internalType": "uint256",
          "name": "updatedAt",
          "type": "uint256"
        }
      ],
      "stateMutability": "view",
      "type": "function"
    },
    {
      "inputs": [],
      "name": "renounceOwnership",
      "outputs": [],
      "stateMutability": "nonpayable",
      "type": "function"
    },
    {
      "inputs": [
        {
          "internalType": "uint256",
          "name": "policyId",
          "type": "uint256"
        },
        {
          "internalType": "uint256",
          "name": "claimId",
          "type": "uint256"
        },
        {
          "internalType": "uint256",
          "name": "claimAmount",
          "type": "uint256"
        },
        {
          "internalType": "bytes32",
          "name": "reason",
          "type": "bytes32"
        }
      ],
      "name": "requestClaim",
      "outputs": [
        {
          "internalType": "uint256",
          "name": "",
          "type": "uint256"
        }
      ],
      "stateMutability": "nonpayable",
      "type": "function"
    },
    {
      "inputs": [
        {
          "internalType": "address",
          "name": "newOwner",
          "type": "address"
        }
      ],
      "name": "transferOwnership",
      "outputs": [],
      "stateMutability": "nonpayable",
      "type": "function"
    },
    {
      "inputs": [
        {
          "internalType": "uint256",
          "name": "quotationId",
          "type": "uint256"
        },
        {
          "internalType": "uint256",
          "name": "premium",
          "type": "uint256"
        },
        {
          "internalType": "uint256",
          "name": "coverage",
          "type": "uint256"
        },
        {
          "internalType": "uint256",
          "name": "createdAt",
          "type": "uint256"
        },
        {
          "internalType": "uint256",
          "name": "updatedAt",
          "type": "uint256"
        }
      ],
      "name": "updateQuotation",
      "outputs": [
        {
          "internalType": "bool",
          "name": "success",
          "type": "bool"
        }
      ],
      "stateMutability": "nonpayable",
      "type": "function"
    }
  ],
  "bytecode": "0x60806040526001805534801561001457600080fd5b50338061003b57604051631e4fbdf760e01b81526000600482015260240160405180910390fd5b6100448161004a565b5061009a565b600080546001600160a01b038381166001600160a01b0319831681178455604051919092169283917f8be0079c531659141344cd1fd0a4f28419497f9722a3daafe3b4186f6b6457e09190a35050565b612aa680620000aa6000396000f3fe608060405234801561001057600080fd5b50600436106101425760003560e01c8063825f4ed9116100b8578063bb0f2d031161007c578063bb0f2d031461040a578063ca37e4a61461041d578063cba5fa8814610430578063d09650b114610443578063f2fde38b14610458578063f894160e1461046b57600080fd5b8063825f4ed914610389578063857b5548146103a957806386f1ce68146103c95780638da5cb5b146103dc57806390b4f12b146103f757600080fd5b80634c2fb2551161010a5780634c2fb255146102d95780635be60b30146102ec57806365b21d141461030f5780637023e5c71461032f578063715018a61461036c5780637fbe658c1461037657600080fd5b8063090d8ad21461014757806329de1f3814610170578063379607f51461019157806337bb65ea146101fd5780633cea512014610262575b600080fd5b61015a6101553660046122c7565b61047e565b60405161016791906123e6565b60405180910390f35b61018361017e366004612440565b61062a565b604051908152602001610167565b6101ea61019f3660046122c7565b600960205260009081526040902080546001820154600283015460038401546005850154600686015460079096015494959394929360ff909216926001600160a01b03909116919087565b60405161016797969594939291906124e5565b61023a61020b366004612543565b600560205260009081526040902080546001820154600283015460038401546004909401549293919290919085565b604080519586526020860194909452928401919091526060830152608082015260a001610167565b6102c46102703660046122c7565b600360208190526000918252604090912080546002820154928201546004830154600584015460068501546007860154600890960154949695939460ff8416946101009094046001600160a01b0316939089565b60405161016799989796959493929190612560565b61023a6102e73660046125b8565b610a46565b6102ff6102fa3660046125b8565b610a94565b6040519015158152602001610167565b61032261031d3660046122c7565b610d54565b6040516101679190612654565b61023a61033d3660046122c7565b600260208190526000918252604090912080546001820154928201546003830154600490930154919392909185565b610374610f75565b005b6102ff6103843660046125b8565b610f89565b61039c6103973660046122c7565b6112eb565b6040516101679190612667565b6103bc6103b73660046122c7565b611444565b60405161016791906126cb565b6102ff6103d7366004612739565b611577565b6000546040516001600160a01b039091168152602001610167565b6102c4610405366004612774565b611783565b6102ff610418366004612739565b6117f6565b61018361042b3660046122c7565b6119c9565b61018361043e3660046127a0565b6119ea565b61044b611d99565b60405161016791906127d2565b610374610466366004612543565b611efb565b6101ea6104793660046125b8565b611f39565b610486612020565b60008281526003602090815260408083208151610140810183528154815260018201805484518187028101870190955280855291949293858401939092908301828280156104fd57602002820191906000526020600020905b81546001600160a01b031681526001909101906020018083116104df575b50505091835250506002820154602082015260038201546040820152600482015460609091019060ff16600181111561053857610538612325565b600181111561054957610549612325565b815260048201546001600160a01b036101009091048116602083015260058301546040830152600683015460608301526007830154608083015260089092015460a091820152820151919350339116036105a5575060016105fe565b60005b8260200151518110156105fc57336001600160a01b0316836020015182815181106105d5576105d5612829565b60200260200101516001600160a01b0316036105f457600191506105fc565b6001016105a8565b505b806106245760405162461bcd60e51b815260040161061b9061283f565b60405180910390fd5b50919050565b6000806000806000806000808880602001905181019061064a919061286c565b9650965096509650965096509650610660612020565b8381526040808201879052606082018690526020808301898152600060c0850181905260e085018990523360a086015261010085018790526101208501869052608085018190528b8152600383529290922083518155915180518493926106ce92600185019291019061208d565b506040820151600282015560608201516003820155608082015160048201805460ff19166001838181111561070557610705612325565b021790555060a0820151600482018054610100600160a81b0319166101006001600160a01b03909316830217905560c0830151600583015560e083015160068301558201516007820155610120909101516008909101556000805b88518110156108e757600460008a838151811061077f5761077f612829565b6020908102919091018101516001600160a01b0316825281810192909252604090810160009081208d8252600384529181208254600181810185558484529490922081546009909302019182558381018054939650909391926107e592840191906120f2565b506002828101549082015560038083015490820155600480830154908201805460ff9092169160ff19166001838181111561082257610822612325565b02179055506004820160019054906101000a90046001600160a01b03168160040160016101000a8154816001600160a01b0302191690836001600160a01b0316021790555060058201548160050155600682015481600601556007820154816007015560088201548160080155505081600460008b84815181106108a8576108a8612829565b60200260200101516001600160a01b03166001600160a01b031681526020019081526020016000209080546108de929190612132565b50600101610760565b50503360009081526004602090815260408083208b845260038352908320815460018181018455838652939094208154600990950201938455828101805492949193919261093892840191906120f2565b506002828101549082015560038083015490820155600480830154908201805460ff9092169160ff19166001838181111561097557610975612325565b02179055506004828101548282018054610100600160a81b031916610100928390046001600160a01b031690920291909117905560058084015490830155600680840154908301556007808401549083015560089283015492909101919091553360009081526020919091526040902081546109f391908390612132565b5084897f45ac8ee4bc2db292b43ba9f6b8d7b63502ea9b90ddd2bcddd55b3221a8aebe088989338d8a8a604051610a2f9695949392919061295a565b60405180910390a350969998505050505050505050565b60066020528160005260406000208181548110610a6257600080fd5b600091825260209091206005909102018054600182015460028301546003840154600490940154929550909350919085565b600080600060096000868152602001908152602001600020604051806101000160405290816000820154815260200160018201548152602001600282015481526020016003820160009054906101000a900460ff166003811115610afa57610afa612325565b6003811115610b0b57610b0b612325565b815260200160048201805480602002602001604051908101604052809291908181526020018280548015610b6857602002820191906000526020600020905b81546001600160a01b03168152600190910190602001808311610b4a575b505050918352505060058201546001600160a01b03166020820152600682015460408201526007909101546060909101529050600181606001516003811115610bb357610bb3612325565b141580610bd65750600381606001516003811115610bd357610bd3612325565b14155b80610bf75750600281606001516003811115610bf457610bf4612325565b14155b610c5a5760405162461bcd60e51b815260206004820152602e60248201527f436c61696d20616c726561647920617070726f766564206f7220636f6d706c6560448201526d746564206f722064656e6965642160901b606482015260840161061b565b600081606001516003811115610c7257610c72612325565b14610c8f5760405162461bcd60e51b815260040161061b906129ce565b60005b816080015151811015610ce657336001600160a01b031682608001518281518110610cbf57610cbf612829565b60200260200101516001600160a01b031603610cde5760019250610ce6565b600101610c92565b5081610d3f5760405162461bcd60e51b815260206004820152602260248201527f4f6e6c7920417574686f72697a656420696e7375726572732063616e2064656e6044820152613c9760f11b606482015260840161061b565b6002606082015260e001839052505b92915050565b60408051610100810182526000808252602082018190529181018290526060808201839052608082015260a0810182905260c0810182905260e081019190915260008281526009602090815260408083208151610100810183528154815260018201549381019390935260028101549183019190915260038082015484939291606084019160ff1690811115610dec57610dec612325565b6003811115610dfd57610dfd612325565b815260200160048201805480602002602001604051908101604052809291908181526020018280548015610e5a57602002820191906000526020600020905b81546001600160a01b03168152600190910190602001808311610e3c575b505050918352505060058201546001600160a01b03166020820152600682015460408201526007909101546060909101528051909150600003610ed25760405162461bcd60e51b815260206004820152601060248201526f21b630b4b6903737ba103337bab7321760811b604482015260640161061b565b336001600160a01b03168160a001516001600160a01b031603610ef85760019150610f51565b60005b816080015151811015610f4f57336001600160a01b031682608001518281518110610f2857610f28612829565b60200260200101516001600160a01b031603610f475760019250610f4f565b600101610efb565b505b81610f6e5760405162461bcd60e51b815260040161061b9061283f565b9392505050565b610f7d611fa3565b610f876000611fd0565b565b60008281526009602090815260408083208054845260039092528220829190600160038084015460ff1690811115610fc357610fc3612325565b141580610fe7575060038281015460ff1681811115610fe457610fe4612325565b14155b61103f5760405162461bcd60e51b8152602060048201526024808201527f436c61696d20616c726561647920617070726f766564206f7220636f6d706c656044820152637465642160e01b606482015260840161061b565b600060038084015460ff169081111561105a5761105a612325565b146110775760405162461bcd60e51b815260040161061b906129ce565b60005b60048301548110156110d057336001600160a01b03168360040182815481106110a5576110a5612829565b6000918252602090912001546001600160a01b0316036110c857600193506110d0565b60010161107a565b508261112c5760405162461bcd60e51b815260206004820152602560248201527f4f6e6c7920417574686f72697a656420696e7375726572732063616e206170706044820152643937bb329760d91b606482015260840161061b565b6000816006015411801561114857508060030154816005015414155b6111ac5760405162461bcd60e51b815260206004820152602f60248201527f436f6d706c65746520436f76657261676520616d6f756e74206861732062656560448201526e37103ab9b2b21030b63932b0b23c9760891b606482015260840161061b565b60038201805460ff1916600190811790915560078301869055820154604051339182916108fc82150291906000818181858888f193505050501580156111f6573d6000803e3d6000fd5b508260010154826006015461120b9190612a28565b6006830155600183015460058301546112249190612a3b565b60058301819055600180850154600685015460405133948c947ff92604239a3f432b8364081ec53d74c5e433230bd6f589f9f191d45b6bca251a9461126e94909390929190612a4e565b60405180910390a3600682015415801561128f575081600301548260050154145b156112e15760018301546006830154600584015460405133938b937ff92604239a3f432b8364081ec53d74c5e433230bd6f589f9f191d45b6bca251a936112d893600390612a4e565b60405180910390a35b5050505092915050565b606060086000838152602001908152602001600020805480602002602001604051908101604052809291908181526020016000905b828210156114395783829060005260206000209060080201604051806101000160405290816000820154815260200160018201548152602001600282015481526020016003820160009054906101000a900460ff16600381111561138657611386612325565b600381111561139757611397612325565b8152602001600482018054806020026020016040519081016040528092919081815260200182805480156113f457602002820191906000526020600020905b81546001600160a01b031681526001909101906020018083116113d6575b505050918352505060058201546001600160a01b0316602080830191909152600683015460408301526007909201546060909101529082526001929092019101611320565b505050509050919050565b60016000908152600660209081527f3e5fec24aa4dc4e5aee2e025e51e1392c72a2500577559fae9665c6d52bd6a31805460408051828502810185019091528181526060949390929190849084015b828210156114f757838290600052602060002090600502016040518060a00160405290816000820154815260200160018201548152602001600282015481526020016003820154815260200160048201548152505081526020019060010190611493565b505050509050606060005b825181101561156f578483828151811061151e5761151e612829565b602002602001015160400151106115675782818151811061154157611541612829565b602002602001015182828151811061155b5761155b612829565b60200260200101819052505b600101611502565b509392505050565b6000858152600260208190526040822090810154156115d85760405162461bcd60e51b815260206004820152601860248201527f51756f746174696f6e20416c7265616479206578697374730000000000000000604482015260640161061b565b8681600001819055508581600101819055508481600201819055508381600301819055508281600401819055508060056000336001600160a01b03166001600160a01b031681526020019081526020016000206000820154816000015560018201548160010155600282015481600201556003820154816003015560048201548160040155905050806002600089815260200190815260200160002060008201548160000155600182015481600101556002820154816002015560038201548160030155600482015481600401559050506006600060018152602001908152602001600020819080600181540180825580915050600190039060005260206000209060050201600090919091909150600082015481600001556001820154816001015560028201548160020155600382015481600301556004820154816004015550507f5b35bd822fb0a31438a141b2ddffa698da5848b56277ed4284c2df09a005bbea8787878787604051611770959493929190948552602085019390935260408401919091526060830152608082015260a00190565b60405180910390a1505b95945050505050565b6004602052816000526040600020818154811061179f57600080fd5b600091825260209091206009909102018054600282015460038301546004840154600585015460068601546007870154600890970154959850939650919460ff8216946101009092046001600160a01b0316939189565b336000908152600560205260408120600281015482036118585760405162461bcd60e51b815260206004820152601960248201527f51756f746174696f6e20646f6573206e6f742065786973747300000000000000604482015260640161061b565b600087815260026020818152604080842060018082018c81558286018c815560048085018c8155338a526005885295892085548155925483850155905496820196909655600380840154908201559254929094019190915591835260069052907f3e5fec24aa4dc4e5aee2e025e51e1392c72a2500577559fae9665c6d52bd6a31905b815481101561196d57898282815481106118f7576118f7612829565b90600052602060002090600502016000015403611965578282828154811061192157611921612829565b906000526020600020906005020160008201548160000155600182015481600101556002820154816002015560038201548160030155600482015481600401559050505b6001016118db565b50604080518a8152602081018a905290810188905260608101879052608081018690527f092e809964b655bf79f77f552dcde7155760449d138004c6d136844565b869969060a00160405180910390a150505095945050505050565b600781815481106119d957600080fd5b600091825260209091200154905081565b600084815260036020908152604080832081516101408101835281548152600182018054845181870281018701909552808552869592948584019390929190830182828015611a6257602002820191906000526020600020905b81546001600160a01b03168152600190910190602001808311611a44575b50505091835250506002820154602082015260038201546040820152600482015460609091019060ff166001811115611a9d57611a9d612325565b6001811115611aae57611aae612325565b815260048201546001600160a01b036101009091048116602083015260058301546040830152600683015460608301526007830154608083015260089092015460a091820152820151919250163314611b195760405162461bcd60e51b815260040161061b9061283f565b600086815260086020908152604080832088845260098352818420825161010081018452815481526001820154948101949094526002810154928401929092526003808301549194939291606084019160ff90911690811115611b7e57611b7e612325565b6003811115611b8f57611b8f612325565b815260200160048201805480602002602001604051908101604052809291908181526020018280548015611bec57602002820191906000526020600020905b81546001600160a01b03168152600190910190602001808311611bce575b505050918352505060058201546001600160a01b03166020820152600682015460408201526007909101546060909101529050600381606001516003811115611c3757611c37612325565b03611c7b5760405162461bcd60e51b8152602060048201526014602482015273436c61696d20616c72656164792065786973747360601b604482015260640161061b565b6020818101878152898352604083018781526000606085018181523360a0870152865460018082018955888452959092208651600890930201918255925181850155905160028201559051600380830180548695919260ff1990911691908490811115611cea57611cea612325565b021790555060808201518051611d0a91600484019160209091019061208d565b5060a08201516005820180546001600160a01b0319166001600160a01b0390921691909117905560c0820151600682015560e0909101516007909101558051602082015160608301516040517fc87683691ce0c7c366b280e4dca2f26e648fc1c8deba1f494f554db61f15f0c893611d859390928c92612a4e565b60405180910390a150949695505050505050565b336000908152600460209081526040808320805482518185028101850190935280835260609493849084015b82821015611ef05783829060005260206000209060090201604051806101400160405290816000820154815260200160018201805480602002602001604051908101604052809291908181526020018280548015611e4c57602002820191906000526020600020905b81546001600160a01b03168152600190910190602001808311611e2e575b50505091835250506002820154602082015260038201546040820152600482015460609091019060ff166001811115611e8757611e87612325565b6001811115611e9857611e98612325565b8152600482015461010090046001600160a01b031660208083019190915260058301546040830152600683015460608301526007830154608083015260089092015460a0909101529082526001929092019101611dc5565b509295945050505050565b611f03611fa3565b6001600160a01b038116611f2d57604051631e4fbdf760e01b81526000600482015260240161061b565b611f3681611fd0565b50565b60086020528160005260406000208181548110611f5557600080fd5b60009182526020909120600890910201805460018201546002830154600384015460058501546006860154600790960154949750929550909360ff909116926001600160a01b039092169187565b6000546001600160a01b03163314610f875760405163118cdaa760e01b815233600482015260240161061b565b600080546001600160a01b038381166001600160a01b0319831681178455604051919092169283917f8be0079c531659141344cd1fd0a4f28419497f9722a3daafe3b4186f6b6457e09190a35050565b604051806101400160405280600081526020016060815260200160008152602001600081526020016000600181111561205b5761205b612325565b815260200160006001600160a01b03168152602001600081526020016000815260200160008152602001600081525090565b8280548282559060005260206000209081019282156120e2579160200282015b828111156120e257825182546001600160a01b0319166001600160a01b039091161782556020909201916001909101906120ad565b506120ee929150612235565b5090565b8280548282559060005260206000209081019282156120e25760005260206000209182015b828111156120e2578254825591600101919060010190612117565b8280548282559060005260206000209060090281019282156122295760005260206000209160090282015b828111156122295782548255600180840180548592859261218192918401916120f2565b506002828101549082015560038083015490820155600480830154908201805460ff9092169160ff1916600183818111156121be576121be612325565b02179055506004828101549082018054610100600160a81b031916610100928390046001600160a01b0316909202919091179055600580830154908201556006808301549082015560078083015490820155600891820154910155600992830192919091019061215d565b506120ee92915061224a565b5b808211156120ee5760008155600101612236565b808211156120ee57600080825561226460018301826122a9565b50600060028201819055600382018190556004820180546001600160a81b0319169055600582018190556006820181905560078201819055600882015560090161224a565b5080546000825590600052602060002090810190611f369190612235565b6000602082840312156122d957600080fd5b5035919050565b60008151808452602080850194506020840160005b8381101561231a5781516001600160a01b0316875295820195908201906001016122f5565b509495945050505050565b634e487b7160e01b600052602160045260246000fd5b6002811061234b5761234b612325565b9052565b600061014082518452602083015181602086015261236f828601826122e0565b91505060408301516040850152606083015160608501526080830151612398608086018261233b565b5060a08301516123b360a08601826001600160a01b03169052565b5060c0838101519085015260e0808401519085015261010080840151908501526101209283015192909301919091525090565b602081526000610f6e602083018461234f565b634e487b7160e01b600052604160045260246000fd5b604051601f8201601f1916810167ffffffffffffffff81118282101715612438576124386123f9565b604052919050565b6000602080838503121561245357600080fd5b823567ffffffffffffffff8082111561246b57600080fd5b818501915085601f83011261247f57600080fd5b813581811115612491576124916123f9565b6124a3601f8201601f1916850161240f565b915080825286848285010111156124b957600080fd5b8084840185840137600090820190930192909252509392505050565b6004811061234b5761234b612325565b878152602081018790526040810186905260e0810161250760608301876124d5565b6001600160a01b0394909416608082015260a081019290925260c090910152949350505050565b6001600160a01b0381168114611f3657600080fd5b60006020828403121561255557600080fd5b8135610f6e8161252e565b89815260208101899052604081018890526101208101612583606083018961233b565b6001600160a01b0396909616608082015260a081019490945260c084019290925260e083015261010090910152949350505050565b600080604083850312156125cb57600080fd5b50508035926020909101359150565b6000610100825184526020830151602085015260408301516040850152606083015161260960608601826124d5565b506080830151816080860152612621828601826122e0565b60a0858101516001600160a01b03169087015260c0808601519087015260e0948501519490950193909352509192915050565b602081526000610f6e60208301846125da565b600060208083016020845280855180835260408601915060408160051b87010192506020870160005b828110156126be57603f198886030184526126ac8583516125da565b94509285019290850190600101612690565b5092979650505050505050565b602080825282518282018190526000919060409081850190868401855b8281101561272c5781518051855286810151878601528581015186860152606080820151908601526080908101519085015260a090930192908501906001016126e8565b5091979650505050505050565b600080600080600060a0868803121561275157600080fd5b505083359560208501359550604085013594606081013594506080013592509050565b6000806040838503121561278757600080fd5b82356127928161252e565b946020939093013593505050565b600080600080608085870312156127b657600080fd5b5050823594602084013594506040840135936060013592509050565b600060208083016020845280855180835260408601915060408160051b87010192506020870160005b828110156126be57603f1988860301845261281785835161234f565b945092850192908501906001016127fb565b634e487b7160e01b600052603260045260246000fd5b602080825260139082015272556e417574686f72697a65642041636365737360681b604082015260600190565b600080600080600080600060e0888a03121561288757600080fd5b8751965060208089015167ffffffffffffffff808211156128a757600080fd5b818b0191508b601f8301126128bb57600080fd5b8151818111156128cd576128cd6123f9565b8060051b91506128de84830161240f565b818152918301840191848101908e8411156128f857600080fd5b938501935b8385101561292257845192506129128361252e565b82825293850193908501906128fd565b809b5050505050505060408801519450606088015193506080880151925060a0880151915060c0880151905092959891949750929550565b86815260208082018790526001600160a01b03868116604084015260c060608401819052865190840181905260009287810192909160e0860190855b818110156129b4578551841683529484019491840191600101612996565b505060808601979097525050505060a00152949350505050565b60208082526024908201527f52657175657374656420436c61696d206973206e6f7420696e69746961746564604082015263081e595d60e21b606082015260800190565b634e487b7160e01b600052601160045260246000fd5b81810381811115610d4e57610d4e612a12565b80820180821115610d4e57610d4e612a12565b84815260208101849052604081018390526080810161177a60608301846124d556fea2646970667358221220ad3c4c64113f815c1be7b6f7789a9ff6752e6d22b2a8833b6a06201d2b7520e164736f6c63430008180033",
  "linkReferences": {},
  "deployedLinkReferences": {}
}