{
  "_format": "hh-sol-artifact-1",
  "contractName": "VehicleManagement",
  "sourceName": "contracts/VehicleManagement.sol",
  "abi": [
    {
      "inputs": [],
      "stateMutability": "nonpayable",
      "type": "constructor"
    },
    {
      "inputs": [
        {
          "internalType": "address",
          "name": "owner",
          "type": "address"
        }
      ],
      "name": "OwnableInvalidOwner",
      "type": "error"
    },
    {
      "inputs": [
        {
          "internalType": "address",
          "name": "account",
          "type": "address"
        }
      ],
      "name": "OwnableUnauthorizedAccount",
      "type": "error"
    },
    {
      "anonymous": false,
      "inputs": [
        {
          "indexed": true,
          "internalType": "address",
          "name": "previousOwner",
          "type": "address"
        },
        {
          "indexed": true,
          "internalType": "address",
          "name": "newOwner",
          "type": "address"
        }
      ],
      "name": "OwnershipTransferred",
      "type": "event"
    },
    {
      "anonymous": false,
      "inputs": [
        {
          "indexed": true,
          "internalType": "uint256",
          "name": "vehicleId",
          "type": "uint256"
        },
        {
          "indexed": false,
          "internalType": "address",
          "name": "owner",
          "type": "address"
        },
        {
          "indexed": false,
          "internalType": "bytes32",
          "name": "model",
          "type": "bytes32"
        }
      ],
      "name": "VehicleRegistered",
      "type": "event"
    },
    {
      "inputs": [],
      "name": "getVehicleByAccount",
      "outputs": [
        {
          "components": [
            {
              "internalType": "uint256",
              "name": "vehicleId",
              "type": "uint256"
            },
            {
              "internalType": "address",
              "name": "owner",
              "type": "address"
            },
            {
              "internalType": "bytes32",
              "name": "model",
              "type": "bytes32"
            },
            {
              "internalType": "uint256",
              "name": "purchaseDate",
              "type": "uint256"
            },
            {
              "internalType": "bytes32",
              "name": "vin",
              "type": "bytes32"
            },
            {
              "internalType": "bytes32",
              "name": "color",
              "type": "bytes32"
            },
            {
              "internalType": "bytes32",
              "name": "plateNumber",
              "type": "bytes32"
            },
            {
              "internalType": "uint256",
              "name": "createdAt",
              "type": "uint256"
            },
            {
              "internalType": "uint256",
              "name": "updatedAt",
              "type": "uint256"
            }
          ],
          "internalType": "struct VehicleManagement.Vehicle[]",
          "name": "",
          "type": "tuple[]"
        }
      ],
      "stateMutability": "view",
      "type": "function"
    },
    {
      "inputs": [
        {
          "internalType": "uint256",
          "name": "vehicleId",
          "type": "uint256"
        }
      ],
      "name": "getVehicleByVehicleId",
      "outputs": [
        {
          "components": [
            {
              "internalType": "uint256",
              "name": "vehicleId",
              "type": "uint256"
            },
            {
              "internalType": "address",
              "name": "owner",
              "type": "address"
            },
            {
              "internalType": "bytes32",
              "name": "model",
              "type": "bytes32"
            },
            {
              "internalType": "uint256",
              "name": "purchaseDate",
              "type": "uint256"
            },
            {
              "internalType": "bytes32",
              "name": "vin",
              "type": "bytes32"
            },
            {
              "internalType": "bytes32",
              "name": "color",
              "type": "bytes32"
            },
            {
              "internalType": "bytes32",
              "name": "plateNumber",
              "type": "bytes32"
            },
            {
              "internalType": "uint256",
              "name": "createdAt",
              "type": "uint256"
            },
            {
              "internalType": "uint256",
              "name": "updatedAt",
              "type": "uint256"
            }
          ],
          "internalType": "struct VehicleManagement.Vehicle",
          "name": "",
          "type": "tuple"
        }
      ],
      "stateMutability": "view",
      "type": "function"
    },
    {
      "inputs": [],
      "name": "owner",
      "outputs": [
        {
          "internalType": "address",
          "name": "",
          "type": "address"
        }
      ],
      "stateMutability": "view",
      "type": "function"
    },
    {
      "inputs": [
        {
          "internalType": "bytes",
          "name": "data",
          "type": "bytes"
        }
      ],
      "name": "registerVehicle",
      "outputs": [],
      "stateMutability": "nonpayable",
      "type": "function"
    },
    {
      "inputs": [],
      "name": "renounceOwnership",
      "outputs": [],
      "stateMutability": "nonpayable",
      "type": "function"
    },
    {
      "inputs": [
        {
          "internalType": "address",
          "name": "newOwner",
          "type": "address"
        }
      ],
      "name": "transferOwnership",
      "outputs": [],
      "stateMutability": "nonpayable",
      "type": "function"
    },
    {
      "inputs": [
        {
          "internalType": "address",
          "name": "",
          "type": "address"
        },
        {
          "internalType": "uint256",
          "name": "",
          "type": "uint256"
        }
      ],
      "name": "userVehicleMap",
      "outputs": [
        {
          "internalType": "uint256",
          "name": "vehicleId",
          "type": "uint256"
        },
        {
          "internalType": "address",
          "name": "owner",
          "type": "address"
        },
        {
          "internalType": "bytes32",
          "name": "model",
          "type": "bytes32"
        },
        {
          "internalType": "uint256",
          "name": "purchaseDate",
          "type": "uint256"
        },
        {
          "internalType": "bytes32",
          "name": "vin",
          "type": "bytes32"
        },
        {
          "internalType": "bytes32",
          "name": "color",
          "type": "bytes32"
        },
        {
          "internalType": "bytes32",
          "name": "plateNumber",
          "type": "bytes32"
        },
        {
          "internalType": "uint256",
          "name": "createdAt",
          "type": "uint256"
        },
        {
          "internalType": "uint256",
          "name": "updatedAt",
          "type": "uint256"
        }
      ],
      "stateMutability": "view",
      "type": "function"
    },
    {
      "inputs": [
        {
          "internalType": "uint256",
          "name": "",
          "type": "uint256"
        }
      ],
      "name": "vehicle",
      "outputs": [
        {
          "internalType": "uint256",
          "name": "vehicleId",
          "type": "uint256"
        },
        {
          "internalType": "address",
          "name": "owner",
          "type": "address"
        },
        {
          "internalType": "bytes32",
          "name": "model",
          "type": "bytes32"
        },
        {
          "internalType": "uint256",
          "name": "purchaseDate",
          "type": "uint256"
        },
        {
          "internalType": "bytes32",
          "name": "vin",
          "type": "bytes32"
        },
        {
          "internalType": "bytes32",
          "name": "color",
          "type": "bytes32"
        },
        {
          "internalType": "bytes32",
          "name": "plateNumber",
          "type": "bytes32"
        },
        {
          "internalType": "uint256",
          "name": "createdAt",
          "type": "uint256"
        },
        {
          "internalType": "uint256",
          "name": "updatedAt",
          "type": "uint256"
        }
      ],
      "stateMutability": "view",
      "type": "function"
    },
    {
      "inputs": [
        {
          "internalType": "uint256",
          "name": "",
          "type": "uint256"
        }
      ],
      "name": "vehicles",
      "outputs": [
        {
          "internalType": "uint256",
          "name": "vehicleId",
          "type": "uint256"
        },
        {
          "internalType": "address",
          "name": "owner",
          "type": "address"
        },
        {
          "internalType": "bytes32",
          "name": "model",
          "type": "bytes32"
        },
        {
          "internalType": "uint256",
          "name": "purchaseDate",
          "type": "uint256"
        },
        {
          "internalType": "bytes32",
          "name": "vin",
          "type": "bytes32"
        },
        {
          "internalType": "bytes32",
          "name": "color",
          "type": "bytes32"
        },
        {
          "internalType": "bytes32",
          "name": "plateNumber",
          "type": "bytes32"
        },
        {
          "internalType": "uint256",
          "name": "createdAt",
          "type": "uint256"
        },
        {
          "internalType": "uint256",
          "name": "updatedAt",
          "type": "uint256"
        }
      ],
      "stateMutability": "view",
      "type": "function"
    }
  ],
  "bytecode": "0x608060405234801561001057600080fd5b50338061003757604051631e4fbdf760e01b81526000600482015260240160405180910390fd5b61004081610046565b50610096565b600080546001600160a01b038381166001600160a01b0319831681178455604051919092169283917f8be0079c531659141344cd1fd0a4f28419497f9722a3daafe3b4186f6b6457e09190a35050565b610d9c806100a56000396000f3fe608060405234801561001057600080fd5b50600436106100935760003560e01c8063a39ab40e11610066578063a39ab40e14610134578063a718538514610196578063b8ba95fa146101ab578063e3395a50146101be578063f2fde38b146101de57600080fd5b806314df143214610098578063256fe235146100fc578063715018a6146101115780638da5cb5b14610119575b600080fd5b6100ab6100a6366004610a7c565b6101f1565b60408051998a526001600160a01b0390981660208a0152968801959095526060870193909352608086019190915260a085015260c084015260e0830152610100820152610120015b60405180910390f35b61010f61010a366004610abe565b610263565b005b61010f610558565b6000546040516001600160a01b0390911681526020016100f3565b6100ab610142366004610b6f565b600260208190526000918252604090912080546001820154928201546003830154600484015460058501546006860154600787015460089097015495976001600160a01b0316969495939492939192909189565b61019e61056c565b6040516100f39190610be7565b6100ab6101b9366004610b6f565b610660565b6101d16101cc366004610b6f565b6106c5565b6040516100f39190610c36565b61010f6101ec366004610c4b565b61074c565b6003602052816000526040600020818154811061020d57600080fd5b60009182526020909120600990910201805460018201546002830154600384015460048501546005860154600687015460078801546008909801549699506001600160a01b039095169750929591949093919089565b6000806000806000806000806000898060200190518101906102859190610c6f565b9850985098509850985098509850985098506102c060405180604001604052806007815260200166037bbb732b91d160cd1b8152508961078f565b6102e860405180604001604052806007815260200166036b7b232b61d160cd1b8152506107d8565b6102f18761081b565b6102f9610902565b898160000181815250508881602001906001600160a01b031690816001600160a01b031681525050878160400181815250508681606001818152505085816080018181525050848160a0018181525050838160c0018181525050828160e0018181525050818161010001818152505080600260008c81526020019081526020016000206000820151816000015560208201518160010160006101000a8154816001600160a01b0302191690836001600160a01b0316021790555060408201518160020155606082015181600301556080820151816004015560a0820151816005015560c0820151816006015560e0820151816007015561010082015181600801559050506000600360008b6001600160a01b03166001600160a01b031681526020019081526020016000209050808290806001815401808255809150506001900390600052602060002090600902016000909190919091506000820151816000015560208201518160010160006101000a8154816001600160a01b0302191690836001600160a01b0316021790555060408201518160020155606082015181600301556080820151816004015560a0820151816005015560c0820151816006015560e082015181600701556101008201518160080155505080600360008c6001600160a01b03166001600160a01b0316815260200190815260200160002090805461050592919061094e565b50604080516001600160a01b038c168152602081018b90528c917f92c1a1885217849327738d29f8df4013ed5e190e86dd6192a2260f60fe578d77910160405180910390a2505050505050505050505050565b610560610860565b61056a600061088d565b565b606061059c6040518060400160405280600c81526020016b036b9b39739b2b73232b91d160a51b8152503361078f565b33600090815260036020908152604080832080548251818502810185019093528083529193909284015b82821015610657576000848152602090819020604080516101208101825260098602909201805483526001808201546001600160a01b0316848601526002820154928401929092526003810154606084015260048101546080840152600581015460a0840152600681015460c0840152600781015460e08401526008015461010083015290835290920191016105c6565b50505050905090565b6001818154811061067057600080fd5b60009182526020909120600990910201805460018201546002830154600384015460048501546005860154600687015460078801546008909801549698506001600160a01b0390951696939592949193909289565b6106cd610902565b506000908152600260208181526040928390208351610120810185528154815260018201546001600160a01b03169281019290925291820154928101929092526003810154606083015260048101546080830152600581015460a0830152600681015460c0830152600781015460e08301526008015461010082015290565b610754610860565b6001600160a01b03811661078357604051631e4fbdf760e01b8152600060048201526024015b60405180910390fd5b61078c8161088d565b50565b6107d482826040516024016107a5929190610d29565b60408051601f198184030181529190526020810180516001600160e01b031663319af33360e01b1790526108dd565b5050565b61078c816040516024016107ec9190610d53565b60408051601f198184030181529190526020810180516001600160e01b031663104c13eb60e21b1790526108dd565b61078c8160405160240161083191815260200190565b60408051601f198184030181529190526020810180516001600160e01b03166327b7cf8560e01b1790526108dd565b6000546001600160a01b0316331461056a5760405163118cdaa760e01b815233600482015260240161077a565b600080546001600160a01b038381166001600160a01b0319831681178455604051919092169283917f8be0079c531659141344cd1fd0a4f28419497f9722a3daafe3b4186f6b6457e09190a35050565b61078c8160006a636f6e736f6c652e6c6f679050600080835160208501845afa505050565b6040805161012081018252600080825260208201819052918101829052606081018290526080810182905260a0810182905260c0810182905260e0810182905261010081019190915290565b828054828255906000526020600020906009028101928215610a005760005260206000209160090282015b82811115610a00578254825560018084015490830180546001600160a01b0319166001600160a01b039092169190911790556002808401549083015560038084015490830155600480840154908301556005808401549083015560068084015490830155600780840154908301556008808401549083015560099283019290910190610979565b50610a0c929150610a10565b5090565b5b80821115610a0c5760008082556001820180546001600160a01b03191690556002820181905560038201819055600482018190556005820181905560068201819055600782018190556008820155600901610a11565b6001600160a01b038116811461078c57600080fd5b60008060408385031215610a8f57600080fd5b8235610a9a81610a67565b946020939093013593505050565b634e487b7160e01b600052604160045260246000fd5b600060208284031215610ad057600080fd5b813567ffffffffffffffff80821115610ae857600080fd5b818401915084601f830112610afc57600080fd5b813581811115610b0e57610b0e610aa8565b604051601f8201601f19908116603f01168101908382118183101715610b3657610b36610aa8565b81604052828152876020848701011115610b4f57600080fd5b826020860160208301376000928101602001929092525095945050505050565b600060208284031215610b8157600080fd5b5035919050565b805182526020808201516001600160a01b03169083015260408082015190830152606080820151908301526080808201519083015260a0808201519083015260c0808201519083015260e0808201519083015261010090810151910152565b6020808252825182820181905260009190848201906040850190845b81811015610c2a57610c16838551610b88565b928401926101209290920191600101610c03565b50909695505050505050565b6101208101610c458284610b88565b92915050565b600060208284031215610c5d57600080fd5b8135610c6881610a67565b9392505050565b60008060008060008060008060006101208a8c031215610c8e57600080fd5b8951985060208a0151610ca081610a67565b8098505060408a0151965060608a0151955060808a0151945060a08a0151935060c08a0151925060e08a015191506101008a015190509295985092959850929598565b6000815180845260005b81811015610d0957602081850181015186830182015201610ced565b506000602082860101526020601f19601f83011685010191505092915050565b604081526000610d3c6040830185610ce3565b905060018060a01b03831660208301529392505050565b602081526000610c686020830184610ce356fea2646970667358221220dc84e939e03f9d31c93f155cb4204a65c9f01cddccf023ea7453048e9755364064736f6c63430008180033",
  "linkReferences": {},
  "deployedLinkReferences": {}
}